{
  "_format": "hh-sol-artifact-1",
  "contractName": "TealOwl",
  "sourceName": "contracts/TealOwl.sol",
  "abi": [
    {
      "inputs": [
        {
          "internalType": "address",
          "name": "defaultAdmin",
          "type": "address"
        },
        {
          "internalType": "address",
          "name": "minter",
          "type": "address"
        }
      ],
      "stateMutability": "nonpayable",
      "type": "constructor"
    },
    {
      "inputs": [],
      "name": "AccessControlBadConfirmation",
      "type": "error"
    },
    {
      "inputs": [
        {
          "internalType": "address",
          "name": "account",
          "type": "address"
        },
        {
          "internalType": "bytes32",
          "name": "neededRole",
          "type": "bytes32"
        }
      ],
      "name": "AccessControlUnauthorizedAccount",
      "type": "error"
    },
    {
      "inputs": [],
      "name": "ERC721EnumerableForbiddenBatchMint",
      "type": "error"
    },
    {
      "inputs": [
        {
          "internalType": "address",
          "name": "sender",
          "type": "address"
        },
        {
          "internalType": "uint256",
          "name": "tokenId",
          "type": "uint256"
        },
        {
          "internalType": "address",
          "name": "owner",
          "type": "address"
        }
      ],
      "name": "ERC721IncorrectOwner",
      "type": "error"
    },
    {
      "inputs": [
        {
          "internalType": "address",
          "name": "operator",
          "type": "address"
        },
        {
          "internalType": "uint256",
          "name": "tokenId",
          "type": "uint256"
        }
      ],
      "name": "ERC721InsufficientApproval",
      "type": "error"
    },
    {
      "inputs": [
        {
          "internalType": "address",
          "name": "approver",
          "type": "address"
        }
      ],
      "name": "ERC721InvalidApprover",
      "type": "error"
    },
    {
      "inputs": [
        {
          "internalType": "address",
          "name": "operator",
          "type": "address"
        }
      ],
      "name": "ERC721InvalidOperator",
      "type": "error"
    },
    {
      "inputs": [
        {
          "internalType": "address",
          "name": "owner",
          "type": "address"
        }
      ],
      "name": "ERC721InvalidOwner",
      "type": "error"
    },
    {
      "inputs": [
        {
          "internalType": "address",
          "name": "receiver",
          "type": "address"
        }
      ],
      "name": "ERC721InvalidReceiver",
      "type": "error"
    },
    {
      "inputs": [
        {
          "internalType": "address",
          "name": "sender",
          "type": "address"
        }
      ],
      "name": "ERC721InvalidSender",
      "type": "error"
    },
    {
      "inputs": [
        {
          "internalType": "uint256",
          "name": "tokenId",
          "type": "uint256"
        }
      ],
      "name": "ERC721NonexistentToken",
      "type": "error"
    },
    {
      "inputs": [
        {
          "internalType": "address",
          "name": "owner",
          "type": "address"
        },
        {
          "internalType": "uint256",
          "name": "index",
          "type": "uint256"
        }
      ],
      "name": "ERC721OutOfBoundsIndex",
      "type": "error"
    },
    {
      "anonymous": false,
      "inputs": [
        {
          "indexed": true,
          "internalType": "address",
          "name": "owner",
          "type": "address"
        },
        {
          "indexed": true,
          "internalType": "address",
          "name": "approved",
          "type": "address"
        },
        {
          "indexed": true,
          "internalType": "uint256",
          "name": "tokenId",
          "type": "uint256"
        }
      ],
      "name": "Approval",
      "type": "event"
    },
    {
      "anonymous": false,
      "inputs": [
        {
          "indexed": true,
          "internalType": "address",
          "name": "owner",
          "type": "address"
        },
        {
          "indexed": true,
          "internalType": "address",
          "name": "operator",
          "type": "address"
        },
        {
          "indexed": false,
          "internalType": "bool",
          "name": "approved",
          "type": "bool"
        }
      ],
      "name": "ApprovalForAll",
      "type": "event"
    },
    {
      "anonymous": false,
      "inputs": [
        {
          "indexed": false,
          "internalType": "uint256",
          "name": "_fromTokenId",
          "type": "uint256"
        },
        {
          "indexed": false,
          "internalType": "uint256",
          "name": "_toTokenId",
          "type": "uint256"
        }
      ],
      "name": "BatchMetadataUpdate",
      "type": "event"
    },
    {
      "anonymous": false,
      "inputs": [
        {
          "indexed": false,
          "internalType": "uint256",
          "name": "_tokenId",
          "type": "uint256"
        }
      ],
      "name": "MetadataUpdate",
      "type": "event"
    },
    {
      "anonymous": false,
      "inputs": [
        {
          "indexed": true,
          "internalType": "bytes32",
          "name": "role",
          "type": "bytes32"
        },
        {
          "indexed": true,
          "internalType": "bytes32",
          "name": "previousAdminRole",
          "type": "bytes32"
        },
        {
          "indexed": true,
          "internalType": "bytes32",
          "name": "newAdminRole",
          "type": "bytes32"
        }
      ],
      "name": "RoleAdminChanged",
      "type": "event"
    },
    {
      "anonymous": false,
      "inputs": [
        {
          "indexed": true,
          "internalType": "bytes32",
          "name": "role",
          "type": "bytes32"
        },
        {
          "indexed": true,
          "internalType": "address",
          "name": "account",
          "type": "address"
        },
        {
          "indexed": true,
          "internalType": "address",
          "name": "sender",
          "type": "address"
        }
      ],
      "name": "RoleGranted",
      "type": "event"
    },
    {
      "anonymous": false,
      "inputs": [
        {
          "indexed": true,
          "internalType": "bytes32",
          "name": "role",
          "type": "bytes32"
        },
        {
          "indexed": true,
          "internalType": "address",
          "name": "account",
          "type": "address"
        },
        {
          "indexed": true,
          "internalType": "address",
          "name": "sender",
          "type": "address"
        }
      ],
      "name": "RoleRevoked",
      "type": "event"
    },
    {
      "anonymous": false,
      "inputs": [
        {
          "indexed": true,
          "internalType": "address",
          "name": "from",
          "type": "address"
        },
        {
          "indexed": true,
          "internalType": "address",
          "name": "to",
          "type": "address"
        },
        {
          "indexed": true,
          "internalType": "uint256",
          "name": "tokenId",
          "type": "uint256"
        }
      ],
      "name": "Transfer",
      "type": "event"
    },
    {
      "inputs": [],
      "name": "DEFAULT_ADMIN_ROLE",
      "outputs": [
        {
          "internalType": "bytes32",
          "name": "",
          "type": "bytes32"
        }
      ],
      "stateMutability": "view",
      "type": "function"
    },
    {
      "inputs": [],
      "name": "MINTER_ROLE",
      "outputs": [
        {
          "internalType": "bytes32",
          "name": "",
          "type": "bytes32"
        }
      ],
      "stateMutability": "view",
      "type": "function"
    },
    {
      "inputs": [
        {
          "internalType": "address",
          "name": "to",
          "type": "address"
        },
        {
          "internalType": "uint256",
          "name": "tokenId",
          "type": "uint256"
        }
      ],
      "name": "approve",
      "outputs": [],
      "stateMutability": "nonpayable",
      "type": "function"
    },
    {
      "inputs": [
        {
          "internalType": "address",
          "name": "owner",
          "type": "address"
        }
      ],
      "name": "balanceOf",
      "outputs": [
        {
          "internalType": "uint256",
          "name": "",
          "type": "uint256"
        }
      ],
      "stateMutability": "view",
      "type": "function"
    },
    {
      "inputs": [
        {
          "internalType": "uint256",
          "name": "tokenId",
          "type": "uint256"
        }
      ],
      "name": "getApproved",
      "outputs": [
        {
          "internalType": "address",
          "name": "",
          "type": "address"
        }
      ],
      "stateMutability": "view",
      "type": "function"
    },
    {
      "inputs": [
        {
          "internalType": "bytes32",
          "name": "role",
          "type": "bytes32"
        }
      ],
      "name": "getRoleAdmin",
      "outputs": [
        {
          "internalType": "bytes32",
          "name": "",
          "type": "bytes32"
        }
      ],
      "stateMutability": "view",
      "type": "function"
    },
    {
      "inputs": [
        {
          "internalType": "bytes32",
          "name": "role",
          "type": "bytes32"
        },
        {
          "internalType": "address",
          "name": "account",
          "type": "address"
        }
      ],
      "name": "grantRole",
      "outputs": [],
      "stateMutability": "nonpayable",
      "type": "function"
    },
    {
      "inputs": [
        {
          "internalType": "bytes32",
          "name": "role",
          "type": "bytes32"
        },
        {
          "internalType": "address",
          "name": "account",
          "type": "address"
        }
      ],
      "name": "hasRole",
      "outputs": [
        {
          "internalType": "bool",
          "name": "",
          "type": "bool"
        }
      ],
      "stateMutability": "view",
      "type": "function"
    },
    {
      "inputs": [
        {
          "internalType": "address",
          "name": "owner",
          "type": "address"
        },
        {
          "internalType": "address",
          "name": "operator",
          "type": "address"
        }
      ],
      "name": "isApprovedForAll",
      "outputs": [
        {
          "internalType": "bool",
          "name": "",
          "type": "bool"
        }
      ],
      "stateMutability": "view",
      "type": "function"
    },
    {
      "inputs": [],
      "name": "name",
      "outputs": [
        {
          "internalType": "string",
          "name": "",
          "type": "string"
        }
      ],
      "stateMutability": "view",
      "type": "function"
    },
    {
      "inputs": [
        {
          "internalType": "uint256",
          "name": "tokenId",
          "type": "uint256"
        }
      ],
      "name": "ownerOf",
      "outputs": [
        {
          "internalType": "address",
          "name": "",
          "type": "address"
        }
      ],
      "stateMutability": "view",
      "type": "function"
    },
    {
      "inputs": [
        {
          "internalType": "bytes32",
          "name": "role",
          "type": "bytes32"
        },
        {
          "internalType": "address",
          "name": "callerConfirmation",
          "type": "address"
        }
      ],
      "name": "renounceRole",
      "outputs": [],
      "stateMutability": "nonpayable",
      "type": "function"
    },
    {
      "inputs": [
        {
          "internalType": "bytes32",
          "name": "role",
          "type": "bytes32"
        },
        {
          "internalType": "address",
          "name": "account",
          "type": "address"
        }
      ],
      "name": "revokeRole",
      "outputs": [],
      "stateMutability": "nonpayable",
      "type": "function"
    },
    {
      "inputs": [
        {
          "internalType": "string",
          "name": "toTokenID",
          "type": "string"
        },
        {
          "internalType": "string",
          "name": "uri",
          "type": "string"
        }
      ],
      "name": "safeMint",
      "outputs": [],
      "stateMutability": "nonpayable",
      "type": "function"
    },
    {
      "inputs": [
        {
          "internalType": "address",
          "name": "from",
          "type": "address"
        },
        {
          "internalType": "address",
          "name": "to",
          "type": "address"
        },
        {
          "internalType": "uint256",
          "name": "tokenId",
          "type": "uint256"
        }
      ],
      "name": "safeTransferFrom",
      "outputs": [],
      "stateMutability": "nonpayable",
      "type": "function"
    },
    {
      "inputs": [
        {
          "internalType": "address",
          "name": "from",
          "type": "address"
        },
        {
          "internalType": "address",
          "name": "to",
          "type": "address"
        },
        {
          "internalType": "uint256",
          "name": "tokenId",
          "type": "uint256"
        },
        {
          "internalType": "bytes",
          "name": "data",
          "type": "bytes"
        }
      ],
      "name": "safeTransferFrom",
      "outputs": [],
      "stateMutability": "nonpayable",
      "type": "function"
    },
    {
      "inputs": [
        {
          "internalType": "address",
          "name": "operator",
          "type": "address"
        },
        {
          "internalType": "bool",
          "name": "approved",
          "type": "bool"
        }
      ],
      "name": "setApprovalForAll",
      "outputs": [],
      "stateMutability": "nonpayable",
      "type": "function"
    },
    {
      "inputs": [
        {
          "internalType": "bytes4",
          "name": "interfaceId",
          "type": "bytes4"
        }
      ],
      "name": "supportsInterface",
      "outputs": [
        {
          "internalType": "bool",
          "name": "",
          "type": "bool"
        }
      ],
      "stateMutability": "view",
      "type": "function"
    },
    {
      "inputs": [],
      "name": "symbol",
      "outputs": [
        {
          "internalType": "string",
          "name": "",
          "type": "string"
        }
      ],
      "stateMutability": "view",
      "type": "function"
    },
    {
      "inputs": [
        {
          "internalType": "uint256",
          "name": "index",
          "type": "uint256"
        }
      ],
      "name": "tokenByIndex",
      "outputs": [
        {
          "internalType": "uint256",
          "name": "",
          "type": "uint256"
        }
      ],
      "stateMutability": "view",
      "type": "function"
    },
    {
      "inputs": [
        {
          "internalType": "address",
          "name": "owner",
          "type": "address"
        },
        {
          "internalType": "uint256",
          "name": "index",
          "type": "uint256"
        }
      ],
      "name": "tokenOfOwnerByIndex",
      "outputs": [
        {
          "internalType": "uint256",
          "name": "",
          "type": "uint256"
        }
      ],
      "stateMutability": "view",
      "type": "function"
    },
    {
      "inputs": [
        {
          "internalType": "uint256",
          "name": "tokenId",
          "type": "uint256"
        }
      ],
      "name": "tokenURI",
      "outputs": [
        {
          "internalType": "string",
          "name": "",
          "type": "string"
        }
      ],
      "stateMutability": "view",
      "type": "function"
    },
    {
      "inputs": [
        {
          "internalType": "string",
          "name": "toTokenID",
          "type": "string"
        }
      ],
      "name": "tokenURIS",
      "outputs": [
        {
          "internalType": "string",
          "name": "",
          "type": "string"
        }
      ],
      "stateMutability": "view",
      "type": "function"
    },
    {
      "inputs": [],
      "name": "totalSupply",
      "outputs": [
        {
          "internalType": "uint256",
          "name": "",
          "type": "uint256"
        }
      ],
      "stateMutability": "view",
      "type": "function"
    },
    {
      "inputs": [
        {
          "internalType": "address",
          "name": "from",
          "type": "address"
        },
        {
          "internalType": "address",
          "name": "to",
          "type": "address"
        },
        {
          "internalType": "uint256",
          "name": "tokenId",
          "type": "uint256"
        }
      ],
      "name": "transferFrom",
      "outputs": [],
      "stateMutability": "nonpayable",
      "type": "function"
    }
  ],
  "bytecode": "0x60806040523480156200001157600080fd5b5060405162003974380380620039748339818101604052810190620000379190620002fb565b6040518060400160405280600881526020017f5465616c2d4f776c0000000000000000000000000000000000000000000000008152506040518060400160405280600281526020017f544f0000000000000000000000000000000000000000000000000000000000008152508160009081620000b49190620005bc565b508060019081620000c69190620005bc565b505050620000de6000801b836200011a60201b60201c565b50620001117f9f2df0fed2c77648de5860a4cc508cd0818c85b8b8a1ab4ceeef8d981c8956a6826200011a60201b60201c565b505050620006a3565b60006200012e83836200021e60201b60201c565b62000213576001600b600085815260200190815260200160002060000160008473ffffffffffffffffffffffffffffffffffffffff1673ffffffffffffffffffffffffffffffffffffffff16815260200190815260200160002060006101000a81548160ff021916908315150217905550620001af6200028960201b60201c565b73ffffffffffffffffffffffffffffffffffffffff168273ffffffffffffffffffffffffffffffffffffffff16847f2f8788117e7eff1d82e926ec794901d17c78024a50270940304540a733656f0d60405160405180910390a46001905062000218565b600090505b92915050565b6000600b600084815260200190815260200160002060000160008373ffffffffffffffffffffffffffffffffffffffff1673ffffffffffffffffffffffffffffffffffffffff16815260200190815260200160002060009054906101000a900460ff16905092915050565b600033905090565b600080fd5b600073ffffffffffffffffffffffffffffffffffffffff82169050919050565b6000620002c38262000296565b9050919050565b620002d581620002b6565b8114620002e157600080fd5b50565b600081519050620002f581620002ca565b92915050565b6000806040838503121562000315576200031462000291565b5b60006200032585828601620002e4565b92505060206200033885828601620002e4565b9150509250929050565b600081519050919050565b7f4e487b7100000000000000000000000000000000000000000000000000000000600052604160045260246000fd5b7f4e487b7100000000000000000000000000000000000000000000000000000000600052602260045260246000fd5b60006002820490506001821680620003c457607f821691505b602082108103620003da57620003d96200037c565b5b50919050565b60008190508160005260206000209050919050565b60006020601f8301049050919050565b600082821b905092915050565b600060088302620004447fffffffffffffffffffffffffffffffffffffffffffffffffffffffffffffffff8262000405565b62000450868362000405565b95508019841693508086168417925050509392505050565b6000819050919050565b6000819050919050565b60006200049d62000497620004918462000468565b62000472565b62000468565b9050919050565b6000819050919050565b620004b9836200047c565b620004d1620004c882620004a4565b84845462000412565b825550505050565b600090565b620004e8620004d9565b620004f5818484620004ae565b505050565b5b818110156200051d5762000511600082620004de565b600181019050620004fb565b5050565b601f8211156200056c576200053681620003e0565b6200054184620003f5565b8101602085101562000551578190505b620005696200056085620003f5565b830182620004fa565b50505b505050565b600082821c905092915050565b6000620005916000198460080262000571565b1980831691505092915050565b6000620005ac83836200057e565b9150826002028217905092915050565b620005c78262000342565b67ffffffffffffffff811115620005e357620005e26200034d565b5b620005ef8254620003ab565b620005fc82828562000521565b600060209050601f8311600181146200063457600084156200061f578287015190505b6200062b85826200059e565b8655506200069b565b601f1984166200064486620003e0565b60005b828110156200066e5784890151825560018201915060208501945060208101905062000647565b868310156200068e57848901516200068a601f8916826200057e565b8355505b6001600288020188555050505b505050505050565b6132c180620006b36000396000f3fe608060405234801561001057600080fd5b50600436106101735760003560e01c80634fa1f7ae116100de578063a22cb46511610097578063c87b56dd11610071578063c87b56dd14610480578063d5391393146104b0578063d547741f146104ce578063e985e9c5146104ea57610173565b8063a22cb46514610418578063b88d4fde14610434578063bb85df451461045057610173565b80634fa1f7ae146103305780636352211e1461034c57806370a082311461037c57806391d14854146103ac57806395d89b41146103dc578063a217fddf146103fa57610173565b8063248a9ca311610130578063248a9ca31461024c5780632f2ff15d1461027c5780632f745c591461029857806336568abe146102c857806342842e0e146102e45780634f6ccce71461030057610173565b806301ffc9a71461017857806306fdde03146101a8578063081812fc146101c6578063095ea7b3146101f657806318160ddd1461021257806323b872dd14610230575b600080fd5b610192600480360381019061018d9190612515565b61051a565b60405161019f919061255d565b60405180910390f35b6101b061052c565b6040516101bd9190612608565b60405180910390f35b6101e060048036038101906101db9190612660565b6105be565b6040516101ed91906126ce565b60405180910390f35b610210600480360381019061020b9190612715565b6105da565b005b61021a6105f0565b6040516102279190612764565b60405180910390f35b61024a6004803603810190610245919061277f565b6105fd565b005b61026660048036038101906102619190612808565b6106ff565b6040516102739190612844565b60405180910390f35b6102966004803603810190610291919061285f565b61071f565b005b6102b260048036038101906102ad9190612715565b610741565b6040516102bf9190612764565b60405180910390f35b6102e260048036038101906102dd919061285f565b6107ea565b005b6102fe60048036038101906102f9919061277f565b610865565b005b61031a60048036038101906103159190612660565b610885565b6040516103279190612764565b60405180910390f35b61034a600480360381019061034591906129d4565b6108fb565b005b61036660048036038101906103619190612660565b61097d565b60405161037391906126ce565b60405180910390f35b61039660048036038101906103919190612a4c565b61098f565b6040516103a39190612764565b60405180910390f35b6103c660048036038101906103c1919061285f565b610a49565b6040516103d3919061255d565b60405180910390f35b6103e4610ab4565b6040516103f19190612608565b60405180910390f35b610402610b46565b60405161040f9190612844565b60405180910390f35b610432600480360381019061042d9190612aa5565b610b4d565b005b61044e60048036038101906104499190612b86565b610b63565b005b61046a60048036038101906104659190612c09565b610b80565b6040516104779190612608565b60405180910390f35b61049a60048036038101906104959190612660565b610bb0565b6040516104a79190612608565b60405180910390f35b6104b8610bc2565b6040516104c59190612844565b60405180910390f35b6104e860048036038101906104e3919061285f565b610be6565b005b61050460048036038101906104ff9190612c52565b610c08565b604051610511919061255d565b60405180910390f35b600061052582610c9c565b9050919050565b60606000805461053b90612cc1565b80601f016020809104026020016040519081016040528092919081815260200182805461056790612cc1565b80156105b45780601f10610589576101008083540402835291602001916105b4565b820191906000526020600020905b81548152906001019060200180831161059757829003601f168201915b5050505050905090565b60006105c982610d16565b506105d382610d9e565b9050919050565b6105ec82826105e7610ddb565b610de3565b5050565b6000600880549050905090565b600073ffffffffffffffffffffffffffffffffffffffff168273ffffffffffffffffffffffffffffffffffffffff160361066f5760006040517f64a0ae9200000000000000000000000000000000000000000000000000000000815260040161066691906126ce565b60405180910390fd5b6000610683838361067e610ddb565b610df5565b90508373ffffffffffffffffffffffffffffffffffffffff168173ffffffffffffffffffffffffffffffffffffffff16146106f9578382826040517f64283d7b0000000000000000000000000000000000000000000000000000000081526004016106f093929190612cf2565b60405180910390fd5b50505050565b6000600b6000838152602001908152602001600020600101549050919050565b610728826106ff565b61073181610e0b565b61073b8383610e1f565b50505050565b600061074c8361098f565b82106107915782826040517fa57d13dc000000000000000000000000000000000000000000000000000000008152600401610788929190612d29565b60405180910390fd5b600660008473ffffffffffffffffffffffffffffffffffffffff1673ffffffffffffffffffffffffffffffffffffffff168152602001908152602001600020600083815260200190815260200160002054905092915050565b6107f2610ddb565b73ffffffffffffffffffffffffffffffffffffffff168173ffffffffffffffffffffffffffffffffffffffff1614610856576040517f6697b23200000000000000000000000000000000000000000000000000000000815260040160405180910390fd5b6108608282610f11565b505050565b61088083838360405180602001604052806000815250610b63565b505050565b600061088f6105f0565b82106108d5576000826040517fa57d13dc0000000000000000000000000000000000000000000000000000000081526004016108cc929190612d29565b60405180910390fd5b600882815481106108e9576108e8612d52565b5b90600052602060002001549050919050565b7f9f2df0fed2c77648de5860a4cc508cd0818c85b8b8a1ab4ceeef8d981c8956a661092581610e0b565b6000600c600081548092919061093a90612db0565b91905055905061094a3382611004565b6109548184611022565b80600d856040516109659190612e34565b90815260200160405180910390208190555050505050565b600061098882610d16565b9050919050565b60008073ffffffffffffffffffffffffffffffffffffffff168273ffffffffffffffffffffffffffffffffffffffff1603610a025760006040517f89c62b640000000000000000000000000000000000000000000000000000000081526004016109f991906126ce565b60405180910390fd5b600360008373ffffffffffffffffffffffffffffffffffffffff1673ffffffffffffffffffffffffffffffffffffffff168152602001908152602001600020549050919050565b6000600b600084815260200190815260200160002060000160008373ffffffffffffffffffffffffffffffffffffffff1673ffffffffffffffffffffffffffffffffffffffff16815260200190815260200160002060009054906101000a900460ff16905092915050565b606060018054610ac390612cc1565b80601f0160208091040260200160405190810160405280929190818152602001828054610aef90612cc1565b8015610b3c5780601f10610b1157610100808354040283529160200191610b3c565b820191906000526020600020905b815481529060010190602001808311610b1f57829003601f168201915b5050505050905090565b6000801b81565b610b5f610b58610ddb565b838361107e565b5050565b610b6e8484846105fd565b610b7a848484846111ed565b50505050565b6060610ba9600d83604051610b959190612e34565b908152602001604051809103902054610bb0565b9050919050565b6060610bbb826113a4565b9050919050565b7f9f2df0fed2c77648de5860a4cc508cd0818c85b8b8a1ab4ceeef8d981c8956a681565b610bef826106ff565b610bf881610e0b565b610c028383610f11565b50505050565b6000600560008473ffffffffffffffffffffffffffffffffffffffff1673ffffffffffffffffffffffffffffffffffffffff16815260200190815260200160002060008373ffffffffffffffffffffffffffffffffffffffff1673ffffffffffffffffffffffffffffffffffffffff16815260200190815260200160002060009054906101000a900460ff16905092915050565b60007f7965db0b000000000000000000000000000000000000000000000000000000007bffffffffffffffffffffffffffffffffffffffffffffffffffffffff1916827bffffffffffffffffffffffffffffffffffffffffffffffffffffffff19161480610d0f5750610d0e826114b7565b5b9050919050565b600080610d2283611518565b9050600073ffffffffffffffffffffffffffffffffffffffff168173ffffffffffffffffffffffffffffffffffffffff1603610d9557826040517f7e273289000000000000000000000000000000000000000000000000000000008152600401610d8c9190612764565b60405180910390fd5b80915050919050565b60006004600083815260200190815260200160002060009054906101000a900473ffffffffffffffffffffffffffffffffffffffff169050919050565b600033905090565b610df08383836001611555565b505050565b6000610e0284848461171a565b90509392505050565b610e1c81610e17610ddb565b611837565b50565b6000610e2b8383610a49565b610f06576001600b600085815260200190815260200160002060000160008473ffffffffffffffffffffffffffffffffffffffff1673ffffffffffffffffffffffffffffffffffffffff16815260200190815260200160002060006101000a81548160ff021916908315150217905550610ea3610ddb565b73ffffffffffffffffffffffffffffffffffffffff168273ffffffffffffffffffffffffffffffffffffffff16847f2f8788117e7eff1d82e926ec794901d17c78024a50270940304540a733656f0d60405160405180910390a460019050610f0b565b600090505b92915050565b6000610f1d8383610a49565b15610ff9576000600b600085815260200190815260200160002060000160008473ffffffffffffffffffffffffffffffffffffffff1673ffffffffffffffffffffffffffffffffffffffff16815260200190815260200160002060006101000a81548160ff021916908315150217905550610f96610ddb565b73ffffffffffffffffffffffffffffffffffffffff168273ffffffffffffffffffffffffffffffffffffffff16847ff6391f5c32d9c69d2a47ea670b442974b53935d1edc7fd64eb21e047a839171b60405160405180910390a460019050610ffe565b600090505b92915050565b61101e828260405180602001604052806000815250611888565b5050565b80600a600084815260200190815260200160002090816110429190612ff7565b507ff8e1a15aba9398e019f0b49df1a4fde98ee17ae345cb5f6b5e2c27f5033e8ce7826040516110729190612764565b60405180910390a15050565b600073ffffffffffffffffffffffffffffffffffffffff168273ffffffffffffffffffffffffffffffffffffffff16036110ef57816040517f5b08ba180000000000000000000000000000000000000000000000000000000081526004016110e691906126ce565b60405180910390fd5b80600560008573ffffffffffffffffffffffffffffffffffffffff1673ffffffffffffffffffffffffffffffffffffffff16815260200190815260200160002060008473ffffffffffffffffffffffffffffffffffffffff1673ffffffffffffffffffffffffffffffffffffffff16815260200190815260200160002060006101000a81548160ff0219169083151502179055508173ffffffffffffffffffffffffffffffffffffffff168373ffffffffffffffffffffffffffffffffffffffff167f17307eab39ab6107e8899845ad3d59bd9653f200f220920489ca2b5937696c31836040516111e0919061255d565b60405180910390a3505050565b60008373ffffffffffffffffffffffffffffffffffffffff163b111561139e578273ffffffffffffffffffffffffffffffffffffffff1663150b7a02611231610ddb565b8685856040518563ffffffff1660e01b8152600401611253949392919061311e565b6020604051808303816000875af192505050801561128f57506040513d601f19601f8201168201806040525081019061128c919061317f565b60015b611313573d80600081146112bf576040519150601f19603f3d011682016040523d82523d6000602084013e6112c4565b606091505b50600081510361130b57836040517f64a0ae9200000000000000000000000000000000000000000000000000000000815260040161130291906126ce565b60405180910390fd5b805181602001fd5b63150b7a0260e01b7bffffffffffffffffffffffffffffffffffffffffffffffffffffffff1916817bffffffffffffffffffffffffffffffffffffffffffffffffffffffff19161461139c57836040517f64a0ae9200000000000000000000000000000000000000000000000000000000815260040161139391906126ce565b60405180910390fd5b505b50505050565b60606113af82610d16565b506000600a600084815260200190815260200160002080546113d090612cc1565b80601f01602080910402602001604051908101604052809291908181526020018280546113fc90612cc1565b80156114495780601f1061141e57610100808354040283529160200191611449565b820191906000526020600020905b81548152906001019060200180831161142c57829003601f168201915b50505050509050600061145a6118a4565b9050600081510361146f5781925050506114b2565b6000825111156114a457808260405160200161148c9291906131ac565b604051602081830303815290604052925050506114b2565b6114ad846118bb565b925050505b919050565b6000634906490660e01b7bffffffffffffffffffffffffffffffffffffffffffffffffffffffff1916827bffffffffffffffffffffffffffffffffffffffffffffffffffffffff19161480611511575061151082611924565b5b9050919050565b60006002600083815260200190815260200160002060009054906101000a900473ffffffffffffffffffffffffffffffffffffffff169050919050565b808061158e5750600073ffffffffffffffffffffffffffffffffffffffff168273ffffffffffffffffffffffffffffffffffffffff1614155b156116c257600061159e84610d16565b9050600073ffffffffffffffffffffffffffffffffffffffff168373ffffffffffffffffffffffffffffffffffffffff161415801561160957508273ffffffffffffffffffffffffffffffffffffffff168173ffffffffffffffffffffffffffffffffffffffff1614155b801561161c575061161a8184610c08565b155b1561165e57826040517fa9fbf51f00000000000000000000000000000000000000000000000000000000815260040161165591906126ce565b60405180910390fd5b81156116c057838573ffffffffffffffffffffffffffffffffffffffff168273ffffffffffffffffffffffffffffffffffffffff167f8c5be1e5ebec7d5bd14f71427d1e84f3dd0314c0f7b2291e5b200ac8c7c3b92560405160405180910390a45b505b836004600085815260200190815260200160002060006101000a81548173ffffffffffffffffffffffffffffffffffffffff021916908373ffffffffffffffffffffffffffffffffffffffff16021790555050505050565b60008061172885858561199e565b9050600073ffffffffffffffffffffffffffffffffffffffff168173ffffffffffffffffffffffffffffffffffffffff160361176c5761176784611bb8565b6117ab565b8473ffffffffffffffffffffffffffffffffffffffff168173ffffffffffffffffffffffffffffffffffffffff16146117aa576117a98185611c01565b5b5b600073ffffffffffffffffffffffffffffffffffffffff168573ffffffffffffffffffffffffffffffffffffffff16036117ed576117e884611d62565b61182c565b8473ffffffffffffffffffffffffffffffffffffffff168173ffffffffffffffffffffffffffffffffffffffff161461182b5761182a8585611e33565b5b5b809150509392505050565b6118418282610a49565b6118845780826040517fe2517d3f00000000000000000000000000000000000000000000000000000000815260040161187b9291906131d0565b60405180910390fd5b5050565b6118928383611ebe565b61189f60008484846111ed565b505050565b606060405180602001604052806000815250905090565b60606118c682610d16565b5060006118d16118a4565b905060008151116118f1576040518060200160405280600081525061191c565b806118fb84611fb7565b60405160200161190c9291906131ac565b6040516020818303038152906040525b915050919050565b60007f780e9d63000000000000000000000000000000000000000000000000000000007bffffffffffffffffffffffffffffffffffffffffffffffffffffffff1916827bffffffffffffffffffffffffffffffffffffffffffffffffffffffff19161480611997575061199682612085565b5b9050919050565b6000806119aa84611518565b9050600073ffffffffffffffffffffffffffffffffffffffff168373ffffffffffffffffffffffffffffffffffffffff16146119ec576119eb818486612167565b5b600073ffffffffffffffffffffffffffffffffffffffff168173ffffffffffffffffffffffffffffffffffffffff1614611a7d57611a2e600085600080611555565b6001600360008373ffffffffffffffffffffffffffffffffffffffff1673ffffffffffffffffffffffffffffffffffffffff168152602001908152602001600020600082825403925050819055505b600073ffffffffffffffffffffffffffffffffffffffff168573ffffffffffffffffffffffffffffffffffffffff1614611b00576001600360008773ffffffffffffffffffffffffffffffffffffffff1673ffffffffffffffffffffffffffffffffffffffff168152602001908152602001600020600082825401925050819055505b846002600086815260200190815260200160002060006101000a81548173ffffffffffffffffffffffffffffffffffffffff021916908373ffffffffffffffffffffffffffffffffffffffff160217905550838573ffffffffffffffffffffffffffffffffffffffff168273ffffffffffffffffffffffffffffffffffffffff167fddf252ad1be2c89b69c2b068fc378daa952ba7f163c4a11628f55a4df523b3ef60405160405180910390a4809150509392505050565b6008805490506009600083815260200190815260200160002081905550600881908060018154018082558091505060019003906000526020600020016000909190919091505550565b6000611c0c8361098f565b9050600060076000848152602001908152602001600020549050818114611cf1576000600660008673ffffffffffffffffffffffffffffffffffffffff1673ffffffffffffffffffffffffffffffffffffffff168152602001908152602001600020600084815260200190815260200160002054905080600660008773ffffffffffffffffffffffffffffffffffffffff1673ffffffffffffffffffffffffffffffffffffffff168152602001908152602001600020600084815260200190815260200160002081905550816007600083815260200190815260200160002081905550505b6007600084815260200190815260200160002060009055600660008573ffffffffffffffffffffffffffffffffffffffff1673ffffffffffffffffffffffffffffffffffffffff16815260200190815260200160002060008381526020019081526020016000206000905550505050565b60006001600880549050611d7691906131f9565b9050600060096000848152602001908152602001600020549050600060088381548110611da657611da5612d52565b5b906000526020600020015490508060088381548110611dc857611dc7612d52565b5b906000526020600020018190555081600960008381526020019081526020016000208190555060096000858152602001908152602001600020600090556008805480611e1757611e1661322d565b5b6001900381819060005260206000200160009055905550505050565b60006001611e408461098f565b611e4a91906131f9565b905081600660008573ffffffffffffffffffffffffffffffffffffffff1673ffffffffffffffffffffffffffffffffffffffff168152602001908152602001600020600083815260200190815260200160002081905550806007600084815260200190815260200160002081905550505050565b600073ffffffffffffffffffffffffffffffffffffffff168273ffffffffffffffffffffffffffffffffffffffff1603611f305760006040517f64a0ae92000000000000000000000000000000000000000000000000000000008152600401611f2791906126ce565b60405180910390fd5b6000611f3e83836000610df5565b9050600073ffffffffffffffffffffffffffffffffffffffff168173ffffffffffffffffffffffffffffffffffffffff1614611fb25760006040517f73c6ac6e000000000000000000000000000000000000000000000000000000008152600401611fa991906126ce565b60405180910390fd5b505050565b606060006001611fc68461222b565b01905060008167ffffffffffffffff811115611fe557611fe46128a9565b5b6040519080825280601f01601f1916602001820160405280156120175781602001600182028036833780820191505090505b509050600082602001820190505b60011561207a578080600190039150507f3031323334353637383961626364656600000000000000000000000000000000600a86061a8153600a858161206e5761206d61325c565b5b04945060008503612025575b819350505050919050565b60007f80ac58cd000000000000000000000000000000000000000000000000000000007bffffffffffffffffffffffffffffffffffffffffffffffffffffffff1916827bffffffffffffffffffffffffffffffffffffffffffffffffffffffff1916148061215057507f5b5e139f000000000000000000000000000000000000000000000000000000007bffffffffffffffffffffffffffffffffffffffffffffffffffffffff1916827bffffffffffffffffffffffffffffffffffffffffffffffffffffffff1916145b80612160575061215f8261237e565b5b9050919050565b6121728383836123e8565b61222657600073ffffffffffffffffffffffffffffffffffffffff168373ffffffffffffffffffffffffffffffffffffffff16036121e757806040517f7e2732890000000000000000000000000000000000000000000000000000000081526004016121de9190612764565b60405180910390fd5b81816040517f177e802f00000000000000000000000000000000000000000000000000000000815260040161221d929190612d29565b60405180910390fd5b505050565b600080600090507a184f03e93ff9f4daa797ed6e38ed64bf6a1f0100000000000000008310612289577a184f03e93ff9f4daa797ed6e38ed64bf6a1f010000000000000000838161227f5761227e61325c565b5b0492506040810190505b6d04ee2d6d415b85acef810000000083106122c6576d04ee2d6d415b85acef810000000083816122bc576122bb61325c565b5b0492506020810190505b662386f26fc1000083106122f557662386f26fc1000083816122eb576122ea61325c565b5b0492506010810190505b6305f5e100831061231e576305f5e10083816123145761231361325c565b5b0492506008810190505b61271083106123435761271083816123395761233861325c565b5b0492506004810190505b60648310612366576064838161235c5761235b61325c565b5b0492506002810190505b600a8310612375576001810190505b80915050919050565b60007f01ffc9a7000000000000000000000000000000000000000000000000000000007bffffffffffffffffffffffffffffffffffffffffffffffffffffffff1916827bffffffffffffffffffffffffffffffffffffffffffffffffffffffff1916149050919050565b60008073ffffffffffffffffffffffffffffffffffffffff168373ffffffffffffffffffffffffffffffffffffffff16141580156124a057508273ffffffffffffffffffffffffffffffffffffffff168473ffffffffffffffffffffffffffffffffffffffff16148061246157506124608484610c08565b5b8061249f57508273ffffffffffffffffffffffffffffffffffffffff1661248783610d9e565b73ffffffffffffffffffffffffffffffffffffffff16145b5b90509392505050565b6000604051905090565b600080fd5b600080fd5b60007fffffffff0000000000000000000000000000000000000000000000000000000082169050919050565b6124f2816124bd565b81146124fd57600080fd5b50565b60008135905061250f816124e9565b92915050565b60006020828403121561252b5761252a6124b3565b5b600061253984828501612500565b91505092915050565b60008115159050919050565b61255781612542565b82525050565b6000602082019050612572600083018461254e565b92915050565b600081519050919050565b600082825260208201905092915050565b60005b838110156125b2578082015181840152602081019050612597565b60008484015250505050565b6000601f19601f8301169050919050565b60006125da82612578565b6125e48185612583565b93506125f4818560208601612594565b6125fd816125be565b840191505092915050565b6000602082019050818103600083015261262281846125cf565b905092915050565b6000819050919050565b61263d8161262a565b811461264857600080fd5b50565b60008135905061265a81612634565b92915050565b600060208284031215612676576126756124b3565b5b60006126848482850161264b565b91505092915050565b600073ffffffffffffffffffffffffffffffffffffffff82169050919050565b60006126b88261268d565b9050919050565b6126c8816126ad565b82525050565b60006020820190506126e360008301846126bf565b92915050565b6126f2816126ad565b81146126fd57600080fd5b50565b60008135905061270f816126e9565b92915050565b6000806040838503121561272c5761272b6124b3565b5b600061273a85828601612700565b925050602061274b8582860161264b565b9150509250929050565b61275e8161262a565b82525050565b60006020820190506127796000830184612755565b92915050565b600080600060608486031215612798576127976124b3565b5b60006127a686828701612700565b93505060206127b786828701612700565b92505060406127c88682870161264b565b9150509250925092565b6000819050919050565b6127e5816127d2565b81146127f057600080fd5b50565b600081359050612802816127dc565b92915050565b60006020828403121561281e5761281d6124b3565b5b600061282c848285016127f3565b91505092915050565b61283e816127d2565b82525050565b60006020820190506128596000830184612835565b92915050565b60008060408385031215612876576128756124b3565b5b6000612884858286016127f3565b925050602061289585828601612700565b9150509250929050565b600080fd5b600080fd5b7f4e487b7100000000000000000000000000000000000000000000000000000000600052604160045260246000fd5b6128e1826125be565b810181811067ffffffffffffffff82111715612900576128ff6128a9565b5b80604052505050565b60006129136124a9565b905061291f82826128d8565b919050565b600067ffffffffffffffff82111561293f5761293e6128a9565b5b612948826125be565b9050602081019050919050565b82818337600083830152505050565b600061297761297284612924565b612909565b905082815260208101848484011115612993576129926128a4565b5b61299e848285612955565b509392505050565b600082601f8301126129bb576129ba61289f565b5b81356129cb848260208601612964565b91505092915050565b600080604083850312156129eb576129ea6124b3565b5b600083013567ffffffffffffffff811115612a0957612a086124b8565b5b612a15858286016129a6565b925050602083013567ffffffffffffffff811115612a3657612a356124b8565b5b612a42858286016129a6565b9150509250929050565b600060208284031215612a6257612a616124b3565b5b6000612a7084828501612700565b91505092915050565b612a8281612542565b8114612a8d57600080fd5b50565b600081359050612a9f81612a79565b92915050565b60008060408385031215612abc57612abb6124b3565b5b6000612aca85828601612700565b9250506020612adb85828601612a90565b9150509250929050565b600067ffffffffffffffff821115612b0057612aff6128a9565b5b612b09826125be565b9050602081019050919050565b6000612b29612b2484612ae5565b612909565b905082815260208101848484011115612b4557612b446128a4565b5b612b50848285612955565b509392505050565b600082601f830112612b6d57612b6c61289f565b5b8135612b7d848260208601612b16565b91505092915050565b60008060008060808587031215612ba057612b9f6124b3565b5b6000612bae87828801612700565b9450506020612bbf87828801612700565b9350506040612bd08782880161264b565b925050606085013567ffffffffffffffff811115612bf157612bf06124b8565b5b612bfd87828801612b58565b91505092959194509250565b600060208284031215612c1f57612c1e6124b3565b5b600082013567ffffffffffffffff811115612c3d57612c3c6124b8565b5b612c49848285016129a6565b91505092915050565b60008060408385031215612c6957612c686124b3565b5b6000612c7785828601612700565b9250506020612c8885828601612700565b9150509250929050565b7f4e487b7100000000000000000000000000000000000000000000000000000000600052602260045260246000fd5b60006002820490506001821680612cd957607f821691505b602082108103612cec57612ceb612c92565b5b50919050565b6000606082019050612d0760008301866126bf565b612d146020830185612755565b612d2160408301846126bf565b949350505050565b6000604082019050612d3e60008301856126bf565b612d4b6020830184612755565b9392505050565b7f4e487b7100000000000000000000000000000000000000000000000000000000600052603260045260246000fd5b7f4e487b7100000000000000000000000000000000000000000000000000000000600052601160045260246000fd5b6000612dbb8261262a565b91507fffffffffffffffffffffffffffffffffffffffffffffffffffffffffffffffff8203612ded57612dec612d81565b5b600182019050919050565b600081905092915050565b6000612e0e82612578565b612e188185612df8565b9350612e28818560208601612594565b80840191505092915050565b6000612e408284612e03565b915081905092915050565b60008190508160005260206000209050919050565b60006020601f8301049050919050565b600082821b905092915050565b600060088302612ead7fffffffffffffffffffffffffffffffffffffffffffffffffffffffffffffffff82612e70565b612eb78683612e70565b95508019841693508086168417925050509392505050565b6000819050919050565b6000612ef4612eef612eea8461262a565b612ecf565b61262a565b9050919050565b6000819050919050565b612f0e83612ed9565b612f22612f1a82612efb565b848454612e7d565b825550505050565b600090565b612f37612f2a565b612f42818484612f05565b505050565b5b81811015612f6657612f5b600082612f2f565b600181019050612f48565b5050565b601f821115612fab57612f7c81612e4b565b612f8584612e60565b81016020851015612f94578190505b612fa8612fa085612e60565b830182612f47565b50505b505050565b600082821c905092915050565b6000612fce60001984600802612fb0565b1980831691505092915050565b6000612fe78383612fbd565b9150826002028217905092915050565b61300082612578565b67ffffffffffffffff811115613019576130186128a9565b5b6130238254612cc1565b61302e828285612f6a565b600060209050601f831160018114613061576000841561304f578287015190505b6130598582612fdb565b8655506130c1565b601f19841661306f86612e4b565b60005b8281101561309757848901518255600182019150602085019450602081019050613072565b868310156130b457848901516130b0601f891682612fbd565b8355505b6001600288020188555050505b505050505050565b600081519050919050565b600082825260208201905092915050565b60006130f0826130c9565b6130fa81856130d4565b935061310a818560208601612594565b613113816125be565b840191505092915050565b600060808201905061313360008301876126bf565b61314060208301866126bf565b61314d6040830185612755565b818103606083015261315f81846130e5565b905095945050505050565b600081519050613179816124e9565b92915050565b600060208284031215613195576131946124b3565b5b60006131a38482850161316a565b91505092915050565b60006131b88285612e03565b91506131c48284612e03565b91508190509392505050565b60006040820190506131e560008301856126bf565b6131f26020830184612835565b9392505050565b60006132048261262a565b915061320f8361262a565b925082820390508181111561322757613226612d81565b5b92915050565b7f4e487b7100000000000000000000000000000000000000000000000000000000600052603160045260246000fd5b7f4e487b7100000000000000000000000000000000000000000000000000000000600052601260045260246000fdfea26469706673582212206ec2a81e3f2df17ff3f957afaf1799a4a98e4ba47b3382b60269844666007c2564736f6c63430008170033",
  "linkReferences": {},
  "deployedLinkReferences": {}
}