{
  "_format": "hh-sol-artifact-1",
  "contractName": "TealOwl",
  "sourceName": "contracts/TealOwl.sol",
  "abi": [
    {
      "inputs": [
        {
          "internalType": "address",
          "name": "defaultAdmin",
          "type": "address"
        },
        {
          "internalType": "address",
          "name": "minter",
          "type": "address"
        }
      ],
      "stateMutability": "nonpayable",
      "type": "constructor"
    },
    {
      "inputs": [],
      "name": "AccessControlBadConfirmation",
      "type": "error"
    },
    {
      "inputs": [
        {
          "internalType": "address",
          "name": "account",
          "type": "address"
        },
        {
          "internalType": "bytes32",
          "name": "neededRole",
          "type": "bytes32"
        }
      ],
      "name": "AccessControlUnauthorizedAccount",
      "type": "error"
    },
    {
      "inputs": [],
      "name": "ERC721EnumerableForbiddenBatchMint",
      "type": "error"
    },
    {
      "inputs": [
        {
          "internalType": "address",
          "name": "sender",
          "type": "address"
        },
        {
          "internalType": "uint256",
          "name": "tokenId",
          "type": "uint256"
        },
        {
          "internalType": "address",
          "name": "owner",
          "type": "address"
        }
      ],
      "name": "ERC721IncorrectOwner",
      "type": "error"
    },
    {
      "inputs": [
        {
          "internalType": "address",
          "name": "operator",
          "type": "address"
        },
        {
          "internalType": "uint256",
          "name": "tokenId",
          "type": "uint256"
        }
      ],
      "name": "ERC721InsufficientApproval",
      "type": "error"
    },
    {
      "inputs": [
        {
          "internalType": "address",
          "name": "approver",
          "type": "address"
        }
      ],
      "name": "ERC721InvalidApprover",
      "type": "error"
    },
    {
      "inputs": [
        {
          "internalType": "address",
          "name": "operator",
          "type": "address"
        }
      ],
      "name": "ERC721InvalidOperator",
      "type": "error"
    },
    {
      "inputs": [
        {
          "internalType": "address",
          "name": "owner",
          "type": "address"
        }
      ],
      "name": "ERC721InvalidOwner",
      "type": "error"
    },
    {
      "inputs": [
        {
          "internalType": "address",
          "name": "receiver",
          "type": "address"
        }
      ],
      "name": "ERC721InvalidReceiver",
      "type": "error"
    },
    {
      "inputs": [
        {
          "internalType": "address",
          "name": "sender",
          "type": "address"
        }
      ],
      "name": "ERC721InvalidSender",
      "type": "error"
    },
    {
      "inputs": [
        {
          "internalType": "uint256",
          "name": "tokenId",
          "type": "uint256"
        }
      ],
      "name": "ERC721NonexistentToken",
      "type": "error"
    },
    {
      "inputs": [
        {
          "internalType": "address",
          "name": "owner",
          "type": "address"
        },
        {
          "internalType": "uint256",
          "name": "index",
          "type": "uint256"
        }
      ],
      "name": "ERC721OutOfBoundsIndex",
      "type": "error"
    },
    {
      "anonymous": false,
      "inputs": [
        {
          "indexed": true,
          "internalType": "address",
          "name": "owner",
          "type": "address"
        },
        {
          "indexed": true,
          "internalType": "address",
          "name": "approved",
          "type": "address"
        },
        {
          "indexed": true,
          "internalType": "uint256",
          "name": "tokenId",
          "type": "uint256"
        }
      ],
      "name": "Approval",
      "type": "event"
    },
    {
      "anonymous": false,
      "inputs": [
        {
          "indexed": true,
          "internalType": "address",
          "name": "owner",
          "type": "address"
        },
        {
          "indexed": true,
          "internalType": "address",
          "name": "operator",
          "type": "address"
        },
        {
          "indexed": false,
          "internalType": "bool",
          "name": "approved",
          "type": "bool"
        }
      ],
      "name": "ApprovalForAll",
      "type": "event"
    },
    {
      "anonymous": false,
      "inputs": [
        {
          "indexed": false,
          "internalType": "uint256",
          "name": "_fromTokenId",
          "type": "uint256"
        },
        {
          "indexed": false,
          "internalType": "uint256",
          "name": "_toTokenId",
          "type": "uint256"
        }
      ],
      "name": "BatchMetadataUpdate",
      "type": "event"
    },
    {
      "anonymous": false,
      "inputs": [
        {
          "indexed": false,
          "internalType": "uint256",
          "name": "_tokenId",
          "type": "uint256"
        }
      ],
      "name": "MetadataUpdate",
      "type": "event"
    },
    {
      "anonymous": false,
      "inputs": [
        {
          "indexed": true,
          "internalType": "bytes32",
          "name": "role",
          "type": "bytes32"
        },
        {
          "indexed": true,
          "internalType": "bytes32",
          "name": "previousAdminRole",
          "type": "bytes32"
        },
        {
          "indexed": true,
          "internalType": "bytes32",
          "name": "newAdminRole",
          "type": "bytes32"
        }
      ],
      "name": "RoleAdminChanged",
      "type": "event"
    },
    {
      "anonymous": false,
      "inputs": [
        {
          "indexed": true,
          "internalType": "bytes32",
          "name": "role",
          "type": "bytes32"
        },
        {
          "indexed": true,
          "internalType": "address",
          "name": "account",
          "type": "address"
        },
        {
          "indexed": true,
          "internalType": "address",
          "name": "sender",
          "type": "address"
        }
      ],
      "name": "RoleGranted",
      "type": "event"
    },
    {
      "anonymous": false,
      "inputs": [
        {
          "indexed": true,
          "internalType": "bytes32",
          "name": "role",
          "type": "bytes32"
        },
        {
          "indexed": true,
          "internalType": "address",
          "name": "account",
          "type": "address"
        },
        {
          "indexed": true,
          "internalType": "address",
          "name": "sender",
          "type": "address"
        }
      ],
      "name": "RoleRevoked",
      "type": "event"
    },
    {
      "anonymous": false,
      "inputs": [
        {
          "indexed": true,
          "internalType": "address",
          "name": "from",
          "type": "address"
        },
        {
          "indexed": true,
          "internalType": "address",
          "name": "to",
          "type": "address"
        },
        {
          "indexed": true,
          "internalType": "uint256",
          "name": "tokenId",
          "type": "uint256"
        }
      ],
      "name": "Transfer",
      "type": "event"
    },
    {
      "inputs": [],
      "name": "DEFAULT_ADMIN_ROLE",
      "outputs": [
        {
          "internalType": "bytes32",
          "name": "",
          "type": "bytes32"
        }
      ],
      "stateMutability": "view",
      "type": "function"
    },
    {
      "inputs": [],
      "name": "MINTER_ROLE",
      "outputs": [
        {
          "internalType": "bytes32",
          "name": "",
          "type": "bytes32"
        }
      ],
      "stateMutability": "view",
      "type": "function"
    },
    {
      "inputs": [
        {
          "internalType": "address",
          "name": "to",
          "type": "address"
        },
        {
          "internalType": "uint256",
          "name": "tokenId",
          "type": "uint256"
        }
      ],
      "name": "approve",
      "outputs": [],
      "stateMutability": "nonpayable",
      "type": "function"
    },
    {
      "inputs": [
        {
          "internalType": "address",
          "name": "owner",
          "type": "address"
        }
      ],
      "name": "balanceOf",
      "outputs": [
        {
          "internalType": "uint256",
          "name": "",
          "type": "uint256"
        }
      ],
      "stateMutability": "view",
      "type": "function"
    },
    {
      "inputs": [
        {
          "internalType": "uint256",
          "name": "tokenId",
          "type": "uint256"
        }
      ],
      "name": "getApproved",
      "outputs": [
        {
          "internalType": "address",
          "name": "",
          "type": "address"
        }
      ],
      "stateMutability": "view",
      "type": "function"
    },
    {
      "inputs": [
        {
          "internalType": "bytes32",
          "name": "role",
          "type": "bytes32"
        }
      ],
      "name": "getRoleAdmin",
      "outputs": [
        {
          "internalType": "bytes32",
          "name": "",
          "type": "bytes32"
        }
      ],
      "stateMutability": "view",
      "type": "function"
    },
    {
      "inputs": [
        {
          "internalType": "bytes32",
          "name": "role",
          "type": "bytes32"
        },
        {
          "internalType": "address",
          "name": "account",
          "type": "address"
        }
      ],
      "name": "grantRole",
      "outputs": [],
      "stateMutability": "nonpayable",
      "type": "function"
    },
    {
      "inputs": [
        {
          "internalType": "bytes32",
          "name": "role",
          "type": "bytes32"
        },
        {
          "internalType": "address",
          "name": "account",
          "type": "address"
        }
      ],
      "name": "hasRole",
      "outputs": [
        {
          "internalType": "bool",
          "name": "",
          "type": "bool"
        }
      ],
      "stateMutability": "view",
      "type": "function"
    },
    {
      "inputs": [
        {
          "internalType": "address",
          "name": "owner",
          "type": "address"
        },
        {
          "internalType": "address",
          "name": "operator",
          "type": "address"
        }
      ],
      "name": "isApprovedForAll",
      "outputs": [
        {
          "internalType": "bool",
          "name": "",
          "type": "bool"
        }
      ],
      "stateMutability": "view",
      "type": "function"
    },
    {
      "inputs": [],
      "name": "name",
      "outputs": [
        {
          "internalType": "string",
          "name": "",
          "type": "string"
        }
      ],
      "stateMutability": "view",
      "type": "function"
    },
    {
      "inputs": [
        {
          "internalType": "uint256",
          "name": "tokenId",
          "type": "uint256"
        }
      ],
      "name": "ownerOf",
      "outputs": [
        {
          "internalType": "address",
          "name": "",
          "type": "address"
        }
      ],
      "stateMutability": "view",
      "type": "function"
    },
    {
      "inputs": [
        {
          "internalType": "bytes32",
          "name": "role",
          "type": "bytes32"
        },
        {
          "internalType": "address",
          "name": "callerConfirmation",
          "type": "address"
        }
      ],
      "name": "renounceRole",
      "outputs": [],
      "stateMutability": "nonpayable",
      "type": "function"
    },
    {
      "inputs": [
        {
          "internalType": "bytes32",
          "name": "role",
          "type": "bytes32"
        },
        {
          "internalType": "address",
          "name": "account",
          "type": "address"
        }
      ],
      "name": "revokeRole",
      "outputs": [],
      "stateMutability": "nonpayable",
      "type": "function"
    },
    {
      "inputs": [
        {
          "internalType": "address",
          "name": "to",
          "type": "address"
        },
        {
          "internalType": "uint256",
          "name": "tokenId",
          "type": "uint256"
        },
        {
          "internalType": "string",
          "name": "uri",
          "type": "string"
        }
      ],
      "name": "safeMint",
      "outputs": [],
      "stateMutability": "nonpayable",
      "type": "function"
    },
    {
      "inputs": [
        {
          "internalType": "address",
          "name": "from",
          "type": "address"
        },
        {
          "internalType": "address",
          "name": "to",
          "type": "address"
        },
        {
          "internalType": "uint256",
          "name": "tokenId",
          "type": "uint256"
        }
      ],
      "name": "safeTransferFrom",
      "outputs": [],
      "stateMutability": "nonpayable",
      "type": "function"
    },
    {
      "inputs": [
        {
          "internalType": "address",
          "name": "from",
          "type": "address"
        },
        {
          "internalType": "address",
          "name": "to",
          "type": "address"
        },
        {
          "internalType": "uint256",
          "name": "tokenId",
          "type": "uint256"
        },
        {
          "internalType": "bytes",
          "name": "data",
          "type": "bytes"
        }
      ],
      "name": "safeTransferFrom",
      "outputs": [],
      "stateMutability": "nonpayable",
      "type": "function"
    },
    {
      "inputs": [
        {
          "internalType": "address",
          "name": "operator",
          "type": "address"
        },
        {
          "internalType": "bool",
          "name": "approved",
          "type": "bool"
        }
      ],
      "name": "setApprovalForAll",
      "outputs": [],
      "stateMutability": "nonpayable",
      "type": "function"
    },
    {
      "inputs": [
        {
          "internalType": "bytes4",
          "name": "interfaceId",
          "type": "bytes4"
        }
      ],
      "name": "supportsInterface",
      "outputs": [
        {
          "internalType": "bool",
          "name": "",
          "type": "bool"
        }
      ],
      "stateMutability": "view",
      "type": "function"
    },
    {
      "inputs": [],
      "name": "symbol",
      "outputs": [
        {
          "internalType": "string",
          "name": "",
          "type": "string"
        }
      ],
      "stateMutability": "view",
      "type": "function"
    },
    {
      "inputs": [
        {
          "internalType": "uint256",
          "name": "index",
          "type": "uint256"
        }
      ],
      "name": "tokenByIndex",
      "outputs": [
        {
          "internalType": "uint256",
          "name": "",
          "type": "uint256"
        }
      ],
      "stateMutability": "view",
      "type": "function"
    },
    {
      "inputs": [
        {
          "internalType": "address",
          "name": "owner",
          "type": "address"
        },
        {
          "internalType": "uint256",
          "name": "index",
          "type": "uint256"
        }
      ],
      "name": "tokenOfOwnerByIndex",
      "outputs": [
        {
          "internalType": "uint256",
          "name": "",
          "type": "uint256"
        }
      ],
      "stateMutability": "view",
      "type": "function"
    },
    {
      "inputs": [
        {
          "internalType": "uint256",
          "name": "tokenId",
          "type": "uint256"
        }
      ],
      "name": "tokenURI",
      "outputs": [
        {
          "internalType": "string",
          "name": "",
          "type": "string"
        }
      ],
      "stateMutability": "view",
      "type": "function"
    },
    {
      "inputs": [],
      "name": "totalSupply",
      "outputs": [
        {
          "internalType": "uint256",
          "name": "",
          "type": "uint256"
        }
      ],
      "stateMutability": "view",
      "type": "function"
    },
    {
      "inputs": [
        {
          "internalType": "address",
          "name": "from",
          "type": "address"
        },
        {
          "internalType": "address",
          "name": "to",
          "type": "address"
        },
        {
          "internalType": "uint256",
          "name": "tokenId",
          "type": "uint256"
        }
      ],
      "name": "transferFrom",
      "outputs": [],
      "stateMutability": "nonpayable",
      "type": "function"
    }
  ],
  "bytecode": "0x60806040523480156200001157600080fd5b506040516200380a3803806200380a8339818101604052810190620000379190620002fb565b6040518060400160405280600881526020017f5465616c2d4f776c0000000000000000000000000000000000000000000000008152506040518060400160405280600281526020017f544f0000000000000000000000000000000000000000000000000000000000008152508160009081620000b49190620005bc565b508060019081620000c69190620005bc565b505050620000de6000801b836200011a60201b60201c565b50620001117f9f2df0fed2c77648de5860a4cc508cd0818c85b8b8a1ab4ceeef8d981c8956a6826200011a60201b60201c565b505050620006a3565b60006200012e83836200021e60201b60201c565b62000213576001600b600085815260200190815260200160002060000160008473ffffffffffffffffffffffffffffffffffffffff1673ffffffffffffffffffffffffffffffffffffffff16815260200190815260200160002060006101000a81548160ff021916908315150217905550620001af6200028960201b60201c565b73ffffffffffffffffffffffffffffffffffffffff168273ffffffffffffffffffffffffffffffffffffffff16847f2f8788117e7eff1d82e926ec794901d17c78024a50270940304540a733656f0d60405160405180910390a46001905062000218565b600090505b92915050565b6000600b600084815260200190815260200160002060000160008373ffffffffffffffffffffffffffffffffffffffff1673ffffffffffffffffffffffffffffffffffffffff16815260200190815260200160002060009054906101000a900460ff16905092915050565b600033905090565b600080fd5b600073ffffffffffffffffffffffffffffffffffffffff82169050919050565b6000620002c38262000296565b9050919050565b620002d581620002b6565b8114620002e157600080fd5b50565b600081519050620002f581620002ca565b92915050565b6000806040838503121562000315576200031462000291565b5b60006200032585828601620002e4565b92505060206200033885828601620002e4565b9150509250929050565b600081519050919050565b7f4e487b7100000000000000000000000000000000000000000000000000000000600052604160045260246000fd5b7f4e487b7100000000000000000000000000000000000000000000000000000000600052602260045260246000fd5b60006002820490506001821680620003c457607f821691505b602082108103620003da57620003d96200037c565b5b50919050565b60008190508160005260206000209050919050565b60006020601f8301049050919050565b600082821b905092915050565b600060088302620004447fffffffffffffffffffffffffffffffffffffffffffffffffffffffffffffffff8262000405565b62000450868362000405565b95508019841693508086168417925050509392505050565b6000819050919050565b6000819050919050565b60006200049d62000497620004918462000468565b62000472565b62000468565b9050919050565b6000819050919050565b620004b9836200047c565b620004d1620004c882620004a4565b84845462000412565b825550505050565b600090565b620004e8620004d9565b620004f5818484620004ae565b505050565b5b818110156200051d5762000511600082620004de565b600181019050620004fb565b5050565b601f8211156200056c576200053681620003e0565b6200054184620003f5565b8101602085101562000551578190505b620005696200056085620003f5565b830182620004fa565b50505b505050565b600082821c905092915050565b6000620005916000198460080262000571565b1980831691505092915050565b6000620005ac83836200057e565b9150826002028217905092915050565b620005c78262000342565b67ffffffffffffffff811115620005e357620005e26200034d565b5b620005ef8254620003ab565b620005fc82828562000521565b600060209050601f8311600181146200063457600084156200061f578287015190505b6200062b85826200059e565b8655506200069b565b601f1984166200064486620003e0565b60005b828110156200066e5784890151825560018201915060208501945060208101905062000647565b868310156200068e57848901516200068a601f8916826200057e565b8355505b6001600288020188555050505b505050505050565b61315780620006b36000396000f3fe608060405234801561001057600080fd5b50600436106101585760003560e01c80636352211e116100c3578063b88d4fde1161007c578063b88d4fde146103fd578063c87b56dd14610419578063cd279c7c14610449578063d539139314610465578063d547741f14610483578063e985e9c51461049f57610158565b80636352211e1461031557806370a082311461034557806391d148541461037557806395d89b41146103a5578063a217fddf146103c3578063a22cb465146103e157610158565b8063248a9ca311610115578063248a9ca3146102315780632f2ff15d146102615780632f745c591461027d57806336568abe146102ad57806342842e0e146102c95780634f6ccce7146102e557610158565b806301ffc9a71461015d57806306fdde031461018d578063081812fc146101ab578063095ea7b3146101db57806318160ddd146101f757806323b872dd14610215575b600080fd5b6101776004803603810190610172919061245c565b6104cf565b60405161018491906124a4565b60405180910390f35b6101956104e1565b6040516101a2919061254f565b60405180910390f35b6101c560048036038101906101c091906125a7565b610573565b6040516101d29190612615565b60405180910390f35b6101f560048036038101906101f0919061265c565b61058f565b005b6101ff6105a5565b60405161020c91906126ab565b60405180910390f35b61022f600480360381019061022a91906126c6565b6105b2565b005b61024b6004803603810190610246919061274f565b6106b4565b604051610258919061278b565b60405180910390f35b61027b600480360381019061027691906127a6565b6106d4565b005b6102976004803603810190610292919061265c565b6106f6565b6040516102a491906126ab565b60405180910390f35b6102c760048036038101906102c291906127a6565b61079f565b005b6102e360048036038101906102de91906126c6565b61081a565b005b6102ff60048036038101906102fa91906125a7565b61083a565b60405161030c91906126ab565b60405180910390f35b61032f600480360381019061032a91906125a7565b6108b0565b60405161033c9190612615565b60405180910390f35b61035f600480360381019061035a91906127e6565b6108c2565b60405161036c91906126ab565b60405180910390f35b61038f600480360381019061038a91906127a6565b61097c565b60405161039c91906124a4565b60405180910390f35b6103ad6109e7565b6040516103ba919061254f565b60405180910390f35b6103cb610a79565b6040516103d8919061278b565b60405180910390f35b6103fb60048036038101906103f6919061283f565b610a80565b005b610417600480360381019061041291906129b4565b610a96565b005b610433600480360381019061042e91906125a7565b610ab3565b604051610440919061254f565b60405180910390f35b610463600480360381019061045e9190612ad8565b610ac5565b005b61046d610b09565b60405161047a919061278b565b60405180910390f35b61049d600480360381019061049891906127a6565b610b2d565b005b6104b960048036038101906104b49190612b47565b610b4f565b6040516104c691906124a4565b60405180910390f35b60006104da82610be3565b9050919050565b6060600080546104f090612bb6565b80601f016020809104026020016040519081016040528092919081815260200182805461051c90612bb6565b80156105695780601f1061053e57610100808354040283529160200191610569565b820191906000526020600020905b81548152906001019060200180831161054c57829003601f168201915b5050505050905090565b600061057e82610c5d565b5061058882610ce5565b9050919050565b6105a1828261059c610d22565b610d2a565b5050565b6000600880549050905090565b600073ffffffffffffffffffffffffffffffffffffffff168273ffffffffffffffffffffffffffffffffffffffff16036106245760006040517f64a0ae9200000000000000000000000000000000000000000000000000000000815260040161061b9190612615565b60405180910390fd5b60006106388383610633610d22565b610d3c565b90508373ffffffffffffffffffffffffffffffffffffffff168173ffffffffffffffffffffffffffffffffffffffff16146106ae578382826040517f64283d7b0000000000000000000000000000000000000000000000000000000081526004016106a593929190612be7565b60405180910390fd5b50505050565b6000600b6000838152602001908152602001600020600101549050919050565b6106dd826106b4565b6106e681610d52565b6106f08383610d66565b50505050565b6000610701836108c2565b82106107465782826040517fa57d13dc00000000000000000000000000000000000000000000000000000000815260040161073d929190612c1e565b60405180910390fd5b600660008473ffffffffffffffffffffffffffffffffffffffff1673ffffffffffffffffffffffffffffffffffffffff168152602001908152602001600020600083815260200190815260200160002054905092915050565b6107a7610d22565b73ffffffffffffffffffffffffffffffffffffffff168173ffffffffffffffffffffffffffffffffffffffff161461080b576040517f6697b23200000000000000000000000000000000000000000000000000000000815260040160405180910390fd5b6108158282610e58565b505050565b61083583838360405180602001604052806000815250610a96565b505050565b60006108446105a5565b821061088a576000826040517fa57d13dc000000000000000000000000000000000000000000000000000000008152600401610881929190612c1e565b60405180910390fd5b6008828154811061089e5761089d612c47565b5b90600052602060002001549050919050565b60006108bb82610c5d565b9050919050565b60008073ffffffffffffffffffffffffffffffffffffffff168273ffffffffffffffffffffffffffffffffffffffff16036109355760006040517f89c62b6400000000000000000000000000000000000000000000000000000000815260040161092c9190612615565b60405180910390fd5b600360008373ffffffffffffffffffffffffffffffffffffffff1673ffffffffffffffffffffffffffffffffffffffff168152602001908152602001600020549050919050565b6000600b600084815260200190815260200160002060000160008373ffffffffffffffffffffffffffffffffffffffff1673ffffffffffffffffffffffffffffffffffffffff16815260200190815260200160002060009054906101000a900460ff16905092915050565b6060600180546109f690612bb6565b80601f0160208091040260200160405190810160405280929190818152602001828054610a2290612bb6565b8015610a6f5780601f10610a4457610100808354040283529160200191610a6f565b820191906000526020600020905b815481529060010190602001808311610a5257829003601f168201915b5050505050905090565b6000801b81565b610a92610a8b610d22565b8383610f4b565b5050565b610aa18484846105b2565b610aad848484846110ba565b50505050565b6060610abe82611271565b9050919050565b7f9f2df0fed2c77648de5860a4cc508cd0818c85b8b8a1ab4ceeef8d981c8956a6610aef81610d52565b610af98484611384565b610b0383836113a2565b50505050565b7f9f2df0fed2c77648de5860a4cc508cd0818c85b8b8a1ab4ceeef8d981c8956a681565b610b36826106b4565b610b3f81610d52565b610b498383610e58565b50505050565b6000600560008473ffffffffffffffffffffffffffffffffffffffff1673ffffffffffffffffffffffffffffffffffffffff16815260200190815260200160002060008373ffffffffffffffffffffffffffffffffffffffff1673ffffffffffffffffffffffffffffffffffffffff16815260200190815260200160002060009054906101000a900460ff16905092915050565b60007f7965db0b000000000000000000000000000000000000000000000000000000007bffffffffffffffffffffffffffffffffffffffffffffffffffffffff1916827bffffffffffffffffffffffffffffffffffffffffffffffffffffffff19161480610c565750610c55826113fe565b5b9050919050565b600080610c698361145f565b9050600073ffffffffffffffffffffffffffffffffffffffff168173ffffffffffffffffffffffffffffffffffffffff1603610cdc57826040517f7e273289000000000000000000000000000000000000000000000000000000008152600401610cd391906126ab565b60405180910390fd5b80915050919050565b60006004600083815260200190815260200160002060009054906101000a900473ffffffffffffffffffffffffffffffffffffffff169050919050565b600033905090565b610d37838383600161149c565b505050565b6000610d49848484611661565b90509392505050565b610d6381610d5e610d22565b61177e565b50565b6000610d72838361097c565b610e4d576001600b600085815260200190815260200160002060000160008473ffffffffffffffffffffffffffffffffffffffff1673ffffffffffffffffffffffffffffffffffffffff16815260200190815260200160002060006101000a81548160ff021916908315150217905550610dea610d22565b73ffffffffffffffffffffffffffffffffffffffff168273ffffffffffffffffffffffffffffffffffffffff16847f2f8788117e7eff1d82e926ec794901d17c78024a50270940304540a733656f0d60405160405180910390a460019050610e52565b600090505b92915050565b6000610e64838361097c565b15610f40576000600b600085815260200190815260200160002060000160008473ffffffffffffffffffffffffffffffffffffffff1673ffffffffffffffffffffffffffffffffffffffff16815260200190815260200160002060006101000a81548160ff021916908315150217905550610edd610d22565b73ffffffffffffffffffffffffffffffffffffffff168273ffffffffffffffffffffffffffffffffffffffff16847ff6391f5c32d9c69d2a47ea670b442974b53935d1edc7fd64eb21e047a839171b60405160405180910390a460019050610f45565b600090505b92915050565b600073ffffffffffffffffffffffffffffffffffffffff168273ffffffffffffffffffffffffffffffffffffffff1603610fbc57816040517f5b08ba18000000000000000000000000000000000000000000000000000000008152600401610fb39190612615565b60405180910390fd5b80600560008573ffffffffffffffffffffffffffffffffffffffff1673ffffffffffffffffffffffffffffffffffffffff16815260200190815260200160002060008473ffffffffffffffffffffffffffffffffffffffff1673ffffffffffffffffffffffffffffffffffffffff16815260200190815260200160002060006101000a81548160ff0219169083151502179055508173ffffffffffffffffffffffffffffffffffffffff168373ffffffffffffffffffffffffffffffffffffffff167f17307eab39ab6107e8899845ad3d59bd9653f200f220920489ca2b5937696c31836040516110ad91906124a4565b60405180910390a3505050565b60008373ffffffffffffffffffffffffffffffffffffffff163b111561126b578273ffffffffffffffffffffffffffffffffffffffff1663150b7a026110fe610d22565b8685856040518563ffffffff1660e01b81526004016111209493929190612ccb565b6020604051808303816000875af192505050801561115c57506040513d601f19601f820116820180604052508101906111599190612d2c565b60015b6111e0573d806000811461118c576040519150601f19603f3d011682016040523d82523d6000602084013e611191565b606091505b5060008151036111d857836040517f64a0ae920000000000000000000000000000000000000000000000000000000081526004016111cf9190612615565b60405180910390fd5b805181602001fd5b63150b7a0260e01b7bffffffffffffffffffffffffffffffffffffffffffffffffffffffff1916817bffffffffffffffffffffffffffffffffffffffffffffffffffffffff19161461126957836040517f64a0ae920000000000000000000000000000000000000000000000000000000081526004016112609190612615565b60405180910390fd5b505b50505050565b606061127c82610c5d565b506000600a6000848152602001908152602001600020805461129d90612bb6565b80601f01602080910402602001604051908101604052809291908181526020018280546112c990612bb6565b80156113165780601f106112eb57610100808354040283529160200191611316565b820191906000526020600020905b8154815290600101906020018083116112f957829003601f168201915b5050505050905060006113276117cf565b9050600081510361133c57819250505061137f565b600082511115611371578082604051602001611359929190612d95565b6040516020818303038152906040529250505061137f565b61137a846117e6565b925050505b919050565b61139e82826040518060200160405280600081525061184f565b5050565b80600a600084815260200190815260200160002090816113c29190612f65565b507ff8e1a15aba9398e019f0b49df1a4fde98ee17ae345cb5f6b5e2c27f5033e8ce7826040516113f291906126ab565b60405180910390a15050565b6000634906490660e01b7bffffffffffffffffffffffffffffffffffffffffffffffffffffffff1916827bffffffffffffffffffffffffffffffffffffffffffffffffffffffff1916148061145857506114578261186b565b5b9050919050565b60006002600083815260200190815260200160002060009054906101000a900473ffffffffffffffffffffffffffffffffffffffff169050919050565b80806114d55750600073ffffffffffffffffffffffffffffffffffffffff168273ffffffffffffffffffffffffffffffffffffffff1614155b156116095760006114e584610c5d565b9050600073ffffffffffffffffffffffffffffffffffffffff168373ffffffffffffffffffffffffffffffffffffffff161415801561155057508273ffffffffffffffffffffffffffffffffffffffff168173ffffffffffffffffffffffffffffffffffffffff1614155b801561156357506115618184610b4f565b155b156115a557826040517fa9fbf51f00000000000000000000000000000000000000000000000000000000815260040161159c9190612615565b60405180910390fd5b811561160757838573ffffffffffffffffffffffffffffffffffffffff168273ffffffffffffffffffffffffffffffffffffffff167f8c5be1e5ebec7d5bd14f71427d1e84f3dd0314c0f7b2291e5b200ac8c7c3b92560405160405180910390a45b505b836004600085815260200190815260200160002060006101000a81548173ffffffffffffffffffffffffffffffffffffffff021916908373ffffffffffffffffffffffffffffffffffffffff16021790555050505050565b60008061166f8585856118e5565b9050600073ffffffffffffffffffffffffffffffffffffffff168173ffffffffffffffffffffffffffffffffffffffff16036116b3576116ae84611aff565b6116f2565b8473ffffffffffffffffffffffffffffffffffffffff168173ffffffffffffffffffffffffffffffffffffffff16146116f1576116f08185611b48565b5b5b600073ffffffffffffffffffffffffffffffffffffffff168573ffffffffffffffffffffffffffffffffffffffff16036117345761172f84611ca9565b611773565b8473ffffffffffffffffffffffffffffffffffffffff168173ffffffffffffffffffffffffffffffffffffffff1614611772576117718585611d7a565b5b5b809150509392505050565b611788828261097c565b6117cb5780826040517fe2517d3f0000000000000000000000000000000000000000000000000000000081526004016117c2929190613037565b60405180910390fd5b5050565b606060405180602001604052806000815250905090565b60606117f182610c5d565b5060006117fc6117cf565b9050600081511161181c5760405180602001604052806000815250611847565b8061182684611e05565b604051602001611837929190612d95565b6040516020818303038152906040525b915050919050565b6118598383611ed3565b61186660008484846110ba565b505050565b60007f780e9d63000000000000000000000000000000000000000000000000000000007bffffffffffffffffffffffffffffffffffffffffffffffffffffffff1916827bffffffffffffffffffffffffffffffffffffffffffffffffffffffff191614806118de57506118dd82611fcc565b5b9050919050565b6000806118f18461145f565b9050600073ffffffffffffffffffffffffffffffffffffffff168373ffffffffffffffffffffffffffffffffffffffff1614611933576119328184866120ae565b5b600073ffffffffffffffffffffffffffffffffffffffff168173ffffffffffffffffffffffffffffffffffffffff16146119c45761197560008560008061149c565b6001600360008373ffffffffffffffffffffffffffffffffffffffff1673ffffffffffffffffffffffffffffffffffffffff168152602001908152602001600020600082825403925050819055505b600073ffffffffffffffffffffffffffffffffffffffff168573ffffffffffffffffffffffffffffffffffffffff1614611a47576001600360008773ffffffffffffffffffffffffffffffffffffffff1673ffffffffffffffffffffffffffffffffffffffff168152602001908152602001600020600082825401925050819055505b846002600086815260200190815260200160002060006101000a81548173ffffffffffffffffffffffffffffffffffffffff021916908373ffffffffffffffffffffffffffffffffffffffff160217905550838573ffffffffffffffffffffffffffffffffffffffff168273ffffffffffffffffffffffffffffffffffffffff167fddf252ad1be2c89b69c2b068fc378daa952ba7f163c4a11628f55a4df523b3ef60405160405180910390a4809150509392505050565b6008805490506009600083815260200190815260200160002081905550600881908060018154018082558091505060019003906000526020600020016000909190919091505550565b6000611b53836108c2565b9050600060076000848152602001908152602001600020549050818114611c38576000600660008673ffffffffffffffffffffffffffffffffffffffff1673ffffffffffffffffffffffffffffffffffffffff168152602001908152602001600020600084815260200190815260200160002054905080600660008773ffffffffffffffffffffffffffffffffffffffff1673ffffffffffffffffffffffffffffffffffffffff168152602001908152602001600020600084815260200190815260200160002081905550816007600083815260200190815260200160002081905550505b6007600084815260200190815260200160002060009055600660008573ffffffffffffffffffffffffffffffffffffffff1673ffffffffffffffffffffffffffffffffffffffff16815260200190815260200160002060008381526020019081526020016000206000905550505050565b60006001600880549050611cbd919061308f565b9050600060096000848152602001908152602001600020549050600060088381548110611ced57611cec612c47565b5b906000526020600020015490508060088381548110611d0f57611d0e612c47565b5b906000526020600020018190555081600960008381526020019081526020016000208190555060096000858152602001908152602001600020600090556008805480611d5e57611d5d6130c3565b5b6001900381819060005260206000200160009055905550505050565b60006001611d87846108c2565b611d91919061308f565b905081600660008573ffffffffffffffffffffffffffffffffffffffff1673ffffffffffffffffffffffffffffffffffffffff168152602001908152602001600020600083815260200190815260200160002081905550806007600084815260200190815260200160002081905550505050565b606060006001611e1484612172565b01905060008167ffffffffffffffff811115611e3357611e32612889565b5b6040519080825280601f01601f191660200182016040528015611e655781602001600182028036833780820191505090505b509050600082602001820190505b600115611ec8578080600190039150507f3031323334353637383961626364656600000000000000000000000000000000600a86061a8153600a8581611ebc57611ebb6130f2565b5b04945060008503611e73575b819350505050919050565b600073ffffffffffffffffffffffffffffffffffffffff168273ffffffffffffffffffffffffffffffffffffffff1603611f455760006040517f64a0ae92000000000000000000000000000000000000000000000000000000008152600401611f3c9190612615565b60405180910390fd5b6000611f5383836000610d3c565b9050600073ffffffffffffffffffffffffffffffffffffffff168173ffffffffffffffffffffffffffffffffffffffff1614611fc75760006040517f73c6ac6e000000000000000000000000000000000000000000000000000000008152600401611fbe9190612615565b60405180910390fd5b505050565b60007f80ac58cd000000000000000000000000000000000000000000000000000000007bffffffffffffffffffffffffffffffffffffffffffffffffffffffff1916827bffffffffffffffffffffffffffffffffffffffffffffffffffffffff1916148061209757507f5b5e139f000000000000000000000000000000000000000000000000000000007bffffffffffffffffffffffffffffffffffffffffffffffffffffffff1916827bffffffffffffffffffffffffffffffffffffffffffffffffffffffff1916145b806120a757506120a6826122c5565b5b9050919050565b6120b983838361232f565b61216d57600073ffffffffffffffffffffffffffffffffffffffff168373ffffffffffffffffffffffffffffffffffffffff160361212e57806040517f7e27328900000000000000000000000000000000000000000000000000000000815260040161212591906126ab565b60405180910390fd5b81816040517f177e802f000000000000000000000000000000000000000000000000000000008152600401612164929190612c1e565b60405180910390fd5b505050565b600080600090507a184f03e93ff9f4daa797ed6e38ed64bf6a1f01000000000000000083106121d0577a184f03e93ff9f4daa797ed6e38ed64bf6a1f01000000000000000083816121c6576121c56130f2565b5b0492506040810190505b6d04ee2d6d415b85acef8100000000831061220d576d04ee2d6d415b85acef81000000008381612203576122026130f2565b5b0492506020810190505b662386f26fc10000831061223c57662386f26fc100008381612232576122316130f2565b5b0492506010810190505b6305f5e1008310612265576305f5e100838161225b5761225a6130f2565b5b0492506008810190505b612710831061228a5761271083816122805761227f6130f2565b5b0492506004810190505b606483106122ad57606483816122a3576122a26130f2565b5b0492506002810190505b600a83106122bc576001810190505b80915050919050565b60007f01ffc9a7000000000000000000000000000000000000000000000000000000007bffffffffffffffffffffffffffffffffffffffffffffffffffffffff1916827bffffffffffffffffffffffffffffffffffffffffffffffffffffffff1916149050919050565b60008073ffffffffffffffffffffffffffffffffffffffff168373ffffffffffffffffffffffffffffffffffffffff16141580156123e757508273ffffffffffffffffffffffffffffffffffffffff168473ffffffffffffffffffffffffffffffffffffffff1614806123a857506123a78484610b4f565b5b806123e657508273ffffffffffffffffffffffffffffffffffffffff166123ce83610ce5565b73ffffffffffffffffffffffffffffffffffffffff16145b5b90509392505050565b6000604051905090565b600080fd5b600080fd5b60007fffffffff0000000000000000000000000000000000000000000000000000000082169050919050565b61243981612404565b811461244457600080fd5b50565b60008135905061245681612430565b92915050565b600060208284031215612472576124716123fa565b5b600061248084828501612447565b91505092915050565b60008115159050919050565b61249e81612489565b82525050565b60006020820190506124b96000830184612495565b92915050565b600081519050919050565b600082825260208201905092915050565b60005b838110156124f95780820151818401526020810190506124de565b60008484015250505050565b6000601f19601f8301169050919050565b6000612521826124bf565b61252b81856124ca565b935061253b8185602086016124db565b61254481612505565b840191505092915050565b600060208201905081810360008301526125698184612516565b905092915050565b6000819050919050565b61258481612571565b811461258f57600080fd5b50565b6000813590506125a18161257b565b92915050565b6000602082840312156125bd576125bc6123fa565b5b60006125cb84828501612592565b91505092915050565b600073ffffffffffffffffffffffffffffffffffffffff82169050919050565b60006125ff826125d4565b9050919050565b61260f816125f4565b82525050565b600060208201905061262a6000830184612606565b92915050565b612639816125f4565b811461264457600080fd5b50565b60008135905061265681612630565b92915050565b60008060408385031215612673576126726123fa565b5b600061268185828601612647565b925050602061269285828601612592565b9150509250929050565b6126a581612571565b82525050565b60006020820190506126c0600083018461269c565b92915050565b6000806000606084860312156126df576126de6123fa565b5b60006126ed86828701612647565b93505060206126fe86828701612647565b925050604061270f86828701612592565b9150509250925092565b6000819050919050565b61272c81612719565b811461273757600080fd5b50565b60008135905061274981612723565b92915050565b600060208284031215612765576127646123fa565b5b60006127738482850161273a565b91505092915050565b61278581612719565b82525050565b60006020820190506127a0600083018461277c565b92915050565b600080604083850312156127bd576127bc6123fa565b5b60006127cb8582860161273a565b92505060206127dc85828601612647565b9150509250929050565b6000602082840312156127fc576127fb6123fa565b5b600061280a84828501612647565b91505092915050565b61281c81612489565b811461282757600080fd5b50565b60008135905061283981612813565b92915050565b60008060408385031215612856576128556123fa565b5b600061286485828601612647565b92505060206128758582860161282a565b9150509250929050565b600080fd5b600080fd5b7f4e487b7100000000000000000000000000000000000000000000000000000000600052604160045260246000fd5b6128c182612505565b810181811067ffffffffffffffff821117156128e0576128df612889565b5b80604052505050565b60006128f36123f0565b90506128ff82826128b8565b919050565b600067ffffffffffffffff82111561291f5761291e612889565b5b61292882612505565b9050602081019050919050565b82818337600083830152505050565b600061295761295284612904565b6128e9565b90508281526020810184848401111561297357612972612884565b5b61297e848285612935565b509392505050565b600082601f83011261299b5761299a61287f565b5b81356129ab848260208601612944565b91505092915050565b600080600080608085870312156129ce576129cd6123fa565b5b60006129dc87828801612647565b94505060206129ed87828801612647565b93505060406129fe87828801612592565b925050606085013567ffffffffffffffff811115612a1f57612a1e6123ff565b5b612a2b87828801612986565b91505092959194509250565b600067ffffffffffffffff821115612a5257612a51612889565b5b612a5b82612505565b9050602081019050919050565b6000612a7b612a7684612a37565b6128e9565b905082815260208101848484011115612a9757612a96612884565b5b612aa2848285612935565b509392505050565b600082601f830112612abf57612abe61287f565b5b8135612acf848260208601612a68565b91505092915050565b600080600060608486031215612af157612af06123fa565b5b6000612aff86828701612647565b9350506020612b1086828701612592565b925050604084013567ffffffffffffffff811115612b3157612b306123ff565b5b612b3d86828701612aaa565b9150509250925092565b60008060408385031215612b5e57612b5d6123fa565b5b6000612b6c85828601612647565b9250506020612b7d85828601612647565b9150509250929050565b7f4e487b7100000000000000000000000000000000000000000000000000000000600052602260045260246000fd5b60006002820490506001821680612bce57607f821691505b602082108103612be157612be0612b87565b5b50919050565b6000606082019050612bfc6000830186612606565b612c09602083018561269c565b612c166040830184612606565b949350505050565b6000604082019050612c336000830185612606565b612c40602083018461269c565b9392505050565b7f4e487b7100000000000000000000000000000000000000000000000000000000600052603260045260246000fd5b600081519050919050565b600082825260208201905092915050565b6000612c9d82612c76565b612ca78185612c81565b9350612cb78185602086016124db565b612cc081612505565b840191505092915050565b6000608082019050612ce06000830187612606565b612ced6020830186612606565b612cfa604083018561269c565b8181036060830152612d0c8184612c92565b905095945050505050565b600081519050612d2681612430565b92915050565b600060208284031215612d4257612d416123fa565b5b6000612d5084828501612d17565b91505092915050565b600081905092915050565b6000612d6f826124bf565b612d798185612d59565b9350612d898185602086016124db565b80840191505092915050565b6000612da18285612d64565b9150612dad8284612d64565b91508190509392505050565b60008190508160005260206000209050919050565b60006020601f8301049050919050565b600082821b905092915050565b600060088302612e1b7fffffffffffffffffffffffffffffffffffffffffffffffffffffffffffffffff82612dde565b612e258683612dde565b95508019841693508086168417925050509392505050565b6000819050919050565b6000612e62612e5d612e5884612571565b612e3d565b612571565b9050919050565b6000819050919050565b612e7c83612e47565b612e90612e8882612e69565b848454612deb565b825550505050565b600090565b612ea5612e98565b612eb0818484612e73565b505050565b5b81811015612ed457612ec9600082612e9d565b600181019050612eb6565b5050565b601f821115612f1957612eea81612db9565b612ef384612dce565b81016020851015612f02578190505b612f16612f0e85612dce565b830182612eb5565b50505b505050565b600082821c905092915050565b6000612f3c60001984600802612f1e565b1980831691505092915050565b6000612f558383612f2b565b9150826002028217905092915050565b612f6e826124bf565b67ffffffffffffffff811115612f8757612f86612889565b5b612f918254612bb6565b612f9c828285612ed8565b600060209050601f831160018114612fcf5760008415612fbd578287015190505b612fc78582612f49565b86555061302f565b601f198416612fdd86612db9565b60005b8281101561300557848901518255600182019150602085019450602081019050612fe0565b86831015613022578489015161301e601f891682612f2b565b8355505b6001600288020188555050505b505050505050565b600060408201905061304c6000830185612606565b613059602083018461277c565b9392505050565b7f4e487b7100000000000000000000000000000000000000000000000000000000600052601160045260246000fd5b600061309a82612571565b91506130a583612571565b92508282039050818111156130bd576130bc613060565b5b92915050565b7f4e487b7100000000000000000000000000000000000000000000000000000000600052603160045260246000fd5b7f4e487b7100000000000000000000000000000000000000000000000000000000600052601260045260246000fdfea2646970667358221220530e666093eb528e46b2105f6b1faf2b7df51e88b7fd840502bccea77370d4b364736f6c63430008170033",
  "linkReferences": {},
  "deployedLinkReferences": {}
}