{
  "_format": "hh-sol-artifact-1",
  "contractName": "TealOwl",
  "sourceName": "contracts/TealOwl.sol",
  "abi": [
    {
      "inputs": [
        {
          "internalType": "address",
          "name": "defaultAdmin",
          "type": "address"
        },
        {
          "internalType": "address",
          "name": "minter",
          "type": "address"
        }
      ],
      "stateMutability": "nonpayable",
      "type": "constructor"
    },
    {
      "inputs": [],
      "name": "ERC721EnumerableForbiddenBatchMint",
      "type": "error"
    },
    {
      "inputs": [
        {
          "internalType": "address",
          "name": "sender",
          "type": "address"
        },
        {
          "internalType": "uint256",
          "name": "tokenId",
          "type": "uint256"
        },
        {
          "internalType": "address",
          "name": "owner",
          "type": "address"
        }
      ],
      "name": "ERC721IncorrectOwner",
      "type": "error"
    },
    {
      "inputs": [
        {
          "internalType": "address",
          "name": "operator",
          "type": "address"
        },
        {
          "internalType": "uint256",
          "name": "tokenId",
          "type": "uint256"
        }
      ],
      "name": "ERC721InsufficientApproval",
      "type": "error"
    },
    {
      "inputs": [
        {
          "internalType": "address",
          "name": "approver",
          "type": "address"
        }
      ],
      "name": "ERC721InvalidApprover",
      "type": "error"
    },
    {
      "inputs": [
        {
          "internalType": "address",
          "name": "operator",
          "type": "address"
        }
      ],
      "name": "ERC721InvalidOperator",
      "type": "error"
    },
    {
      "inputs": [
        {
          "internalType": "address",
          "name": "owner",
          "type": "address"
        }
      ],
      "name": "ERC721InvalidOwner",
      "type": "error"
    },
    {
      "inputs": [
        {
          "internalType": "address",
          "name": "receiver",
          "type": "address"
        }
      ],
      "name": "ERC721InvalidReceiver",
      "type": "error"
    },
    {
      "inputs": [
        {
          "internalType": "address",
          "name": "sender",
          "type": "address"
        }
      ],
      "name": "ERC721InvalidSender",
      "type": "error"
    },
    {
      "inputs": [
        {
          "internalType": "uint256",
          "name": "tokenId",
          "type": "uint256"
        }
      ],
      "name": "ERC721NonexistentToken",
      "type": "error"
    },
    {
      "inputs": [
        {
          "internalType": "address",
          "name": "owner",
          "type": "address"
        },
        {
          "internalType": "uint256",
          "name": "index",
          "type": "uint256"
        }
      ],
      "name": "ERC721OutOfBoundsIndex",
      "type": "error"
    },
    {
      "anonymous": false,
      "inputs": [
        {
          "indexed": true,
          "internalType": "address",
          "name": "owner",
          "type": "address"
        },
        {
          "indexed": true,
          "internalType": "address",
          "name": "approved",
          "type": "address"
        },
        {
          "indexed": true,
          "internalType": "uint256",
          "name": "tokenId",
          "type": "uint256"
        }
      ],
      "name": "Approval",
      "type": "event"
    },
    {
      "anonymous": false,
      "inputs": [
        {
          "indexed": true,
          "internalType": "address",
          "name": "owner",
          "type": "address"
        },
        {
          "indexed": true,
          "internalType": "address",
          "name": "operator",
          "type": "address"
        },
        {
          "indexed": false,
          "internalType": "bool",
          "name": "approved",
          "type": "bool"
        }
      ],
      "name": "ApprovalForAll",
      "type": "event"
    },
    {
      "anonymous": false,
      "inputs": [
        {
          "indexed": false,
          "internalType": "uint256",
          "name": "_fromTokenId",
          "type": "uint256"
        },
        {
          "indexed": false,
          "internalType": "uint256",
          "name": "_toTokenId",
          "type": "uint256"
        }
      ],
      "name": "BatchMetadataUpdate",
      "type": "event"
    },
    {
      "anonymous": false,
      "inputs": [
        {
          "indexed": false,
          "internalType": "uint256",
          "name": "_tokenId",
          "type": "uint256"
        }
      ],
      "name": "MetadataUpdate",
      "type": "event"
    },
    {
      "anonymous": false,
      "inputs": [
        {
          "indexed": true,
          "internalType": "address",
          "name": "from",
          "type": "address"
        },
        {
          "indexed": true,
          "internalType": "address",
          "name": "to",
          "type": "address"
        },
        {
          "indexed": true,
          "internalType": "uint256",
          "name": "tokenId",
          "type": "uint256"
        }
      ],
      "name": "Transfer",
      "type": "event"
    },
    {
      "inputs": [
        {
          "internalType": "address",
          "name": "to",
          "type": "address"
        },
        {
          "internalType": "uint256",
          "name": "tokenId",
          "type": "uint256"
        }
      ],
      "name": "approve",
      "outputs": [],
      "stateMutability": "nonpayable",
      "type": "function"
    },
    {
      "inputs": [
        {
          "internalType": "address",
          "name": "owner",
          "type": "address"
        }
      ],
      "name": "balanceOf",
      "outputs": [
        {
          "internalType": "uint256",
          "name": "",
          "type": "uint256"
        }
      ],
      "stateMutability": "view",
      "type": "function"
    },
    {
      "inputs": [
        {
          "internalType": "uint256",
          "name": "tokenId",
          "type": "uint256"
        }
      ],
      "name": "getApproved",
      "outputs": [
        {
          "internalType": "address",
          "name": "",
          "type": "address"
        }
      ],
      "stateMutability": "view",
      "type": "function"
    },
    {
      "inputs": [
        {
          "internalType": "address",
          "name": "owner",
          "type": "address"
        },
        {
          "internalType": "address",
          "name": "operator",
          "type": "address"
        }
      ],
      "name": "isApprovedForAll",
      "outputs": [
        {
          "internalType": "bool",
          "name": "",
          "type": "bool"
        }
      ],
      "stateMutability": "view",
      "type": "function"
    },
    {
      "inputs": [],
      "name": "name",
      "outputs": [
        {
          "internalType": "string",
          "name": "",
          "type": "string"
        }
      ],
      "stateMutability": "view",
      "type": "function"
    },
    {
      "inputs": [
        {
          "internalType": "uint256",
          "name": "tokenId",
          "type": "uint256"
        }
      ],
      "name": "ownerOf",
      "outputs": [
        {
          "internalType": "address",
          "name": "",
          "type": "address"
        }
      ],
      "stateMutability": "view",
      "type": "function"
    },
    {
      "inputs": [
        {
          "internalType": "string",
          "name": "toTokenID",
          "type": "string"
        },
        {
          "internalType": "string",
          "name": "uri",
          "type": "string"
        }
      ],
      "name": "safeMint",
      "outputs": [],
      "stateMutability": "nonpayable",
      "type": "function"
    },
    {
      "inputs": [
        {
          "internalType": "address",
          "name": "from",
          "type": "address"
        },
        {
          "internalType": "address",
          "name": "to",
          "type": "address"
        },
        {
          "internalType": "uint256",
          "name": "tokenId",
          "type": "uint256"
        }
      ],
      "name": "safeTransferFrom",
      "outputs": [],
      "stateMutability": "nonpayable",
      "type": "function"
    },
    {
      "inputs": [
        {
          "internalType": "address",
          "name": "from",
          "type": "address"
        },
        {
          "internalType": "address",
          "name": "to",
          "type": "address"
        },
        {
          "internalType": "uint256",
          "name": "tokenId",
          "type": "uint256"
        },
        {
          "internalType": "bytes",
          "name": "data",
          "type": "bytes"
        }
      ],
      "name": "safeTransferFrom",
      "outputs": [],
      "stateMutability": "nonpayable",
      "type": "function"
    },
    {
      "inputs": [
        {
          "internalType": "address",
          "name": "operator",
          "type": "address"
        },
        {
          "internalType": "bool",
          "name": "approved",
          "type": "bool"
        }
      ],
      "name": "setApprovalForAll",
      "outputs": [],
      "stateMutability": "nonpayable",
      "type": "function"
    },
    {
      "inputs": [
        {
          "internalType": "bytes4",
          "name": "interfaceId",
          "type": "bytes4"
        }
      ],
      "name": "supportsInterface",
      "outputs": [
        {
          "internalType": "bool",
          "name": "",
          "type": "bool"
        }
      ],
      "stateMutability": "view",
      "type": "function"
    },
    {
      "inputs": [],
      "name": "symbol",
      "outputs": [
        {
          "internalType": "string",
          "name": "",
          "type": "string"
        }
      ],
      "stateMutability": "view",
      "type": "function"
    },
    {
      "inputs": [
        {
          "internalType": "uint256",
          "name": "index",
          "type": "uint256"
        }
      ],
      "name": "tokenByIndex",
      "outputs": [
        {
          "internalType": "uint256",
          "name": "",
          "type": "uint256"
        }
      ],
      "stateMutability": "view",
      "type": "function"
    },
    {
      "inputs": [
        {
          "internalType": "address",
          "name": "owner",
          "type": "address"
        },
        {
          "internalType": "uint256",
          "name": "index",
          "type": "uint256"
        }
      ],
      "name": "tokenOfOwnerByIndex",
      "outputs": [
        {
          "internalType": "uint256",
          "name": "",
          "type": "uint256"
        }
      ],
      "stateMutability": "view",
      "type": "function"
    },
    {
      "inputs": [
        {
          "internalType": "uint256",
          "name": "tokenId",
          "type": "uint256"
        }
      ],
      "name": "tokenURI",
      "outputs": [
        {
          "internalType": "string",
          "name": "",
          "type": "string"
        }
      ],
      "stateMutability": "view",
      "type": "function"
    },
    {
      "inputs": [
        {
          "internalType": "string",
          "name": "toTokenID",
          "type": "string"
        }
      ],
      "name": "tokenURIS",
      "outputs": [
        {
          "internalType": "string",
          "name": "",
          "type": "string"
        }
      ],
      "stateMutability": "view",
      "type": "function"
    },
    {
      "inputs": [],
      "name": "totalSupply",
      "outputs": [
        {
          "internalType": "uint256",
          "name": "",
          "type": "uint256"
        }
      ],
      "stateMutability": "view",
      "type": "function"
    },
    {
      "inputs": [
        {
          "internalType": "address",
          "name": "from",
          "type": "address"
        },
        {
          "internalType": "address",
          "name": "to",
          "type": "address"
        },
        {
          "internalType": "uint256",
          "name": "tokenId",
          "type": "uint256"
        }
      ],
      "name": "transferFrom",
      "outputs": [],
      "stateMutability": "nonpayable",
      "type": "function"
    }
  ],
  "bytecode": "0x60806040526000600b553480156200001657600080fd5b50604051620031123803806200311283398181016040528101906200003c919062000140565b6040518060400160405280600881526020017f5465616c2d4f776c0000000000000000000000000000000000000000000000008152506040518060400160405280600281526020017f544f0000000000000000000000000000000000000000000000000000000000008152508160009081620000b9919062000401565b508060019081620000cb919062000401565b5050505050620004e8565b600080fd5b600073ffffffffffffffffffffffffffffffffffffffff82169050919050565b60006200010882620000db565b9050919050565b6200011a81620000fb565b81146200012657600080fd5b50565b6000815190506200013a816200010f565b92915050565b600080604083850312156200015a5762000159620000d6565b5b60006200016a8582860162000129565b92505060206200017d8582860162000129565b9150509250929050565b600081519050919050565b7f4e487b7100000000000000000000000000000000000000000000000000000000600052604160045260246000fd5b7f4e487b7100000000000000000000000000000000000000000000000000000000600052602260045260246000fd5b600060028204905060018216806200020957607f821691505b6020821081036200021f576200021e620001c1565b5b50919050565b60008190508160005260206000209050919050565b60006020601f8301049050919050565b600082821b905092915050565b600060088302620002897fffffffffffffffffffffffffffffffffffffffffffffffffffffffffffffffff826200024a565b6200029586836200024a565b95508019841693508086168417925050509392505050565b6000819050919050565b6000819050919050565b6000620002e2620002dc620002d684620002ad565b620002b7565b620002ad565b9050919050565b6000819050919050565b620002fe83620002c1565b620003166200030d82620002e9565b84845462000257565b825550505050565b600090565b6200032d6200031e565b6200033a818484620002f3565b505050565b5b8181101562000362576200035660008262000323565b60018101905062000340565b5050565b601f821115620003b1576200037b8162000225565b62000386846200023a565b8101602085101562000396578190505b620003ae620003a5856200023a565b8301826200033f565b50505b505050565b600082821c905092915050565b6000620003d660001984600802620003b6565b1980831691505092915050565b6000620003f18383620003c3565b9150826002028217905092915050565b6200040c8262000187565b67ffffffffffffffff81111562000428576200042762000192565b5b620004348254620001f0565b6200044182828562000366565b600060209050601f83116001811462000479576000841562000464578287015190505b620004708582620003e3565b865550620004e0565b601f198416620004898662000225565b60005b82811015620004b3578489015182556001820191506020850194506020810190506200048c565b86831015620004d35784890151620004cf601f891682620003c3565b8355505b6001600288020188555050505b505050505050565b612c1a80620004f86000396000f3fe608060405234801561001057600080fd5b50600436106101165760003560e01c80634fa1f7ae116100a2578063a22cb46511610071578063a22cb46514610305578063b88d4fde14610321578063bb85df451461033d578063c87b56dd1461036d578063e985e9c51461039d57610116565b80634fa1f7ae1461026b5780636352211e1461028757806370a08231146102b757806395d89b41146102e757610116565b806318160ddd116100e957806318160ddd146101b557806323b872dd146101d35780632f745c59146101ef57806342842e0e1461021f5780634f6ccce71461023b57610116565b806301ffc9a71461011b57806306fdde031461014b578063081812fc14610169578063095ea7b314610199575b600080fd5b61013560048036038101906101309190611f64565b6103cd565b6040516101429190611fac565b60405180910390f35b6101536103df565b6040516101609190612057565b60405180910390f35b610183600480360381019061017e91906120af565b610471565b604051610190919061211d565b60405180910390f35b6101b360048036038101906101ae9190612164565b61048d565b005b6101bd6104a3565b6040516101ca91906121b3565b60405180910390f35b6101ed60048036038101906101e891906121ce565b6104b0565b005b61020960048036038101906102049190612164565b6105b2565b60405161021691906121b3565b60405180910390f35b610239600480360381019061023491906121ce565b61065b565b005b610255600480360381019061025091906120af565b61067b565b60405161026291906121b3565b60405180910390f35b61028560048036038101906102809190612356565b6106f1565b005b6102a1600480360381019061029c91906120af565b610748565b6040516102ae919061211d565b60405180910390f35b6102d160048036038101906102cc91906123ce565b61075a565b6040516102de91906121b3565b60405180910390f35b6102ef610814565b6040516102fc9190612057565b60405180910390f35b61031f600480360381019061031a9190612427565b6108a6565b005b61033b60048036038101906103369190612508565b6108bc565b005b6103576004803603810190610352919061258b565b6108d9565b6040516103649190612057565b60405180910390f35b610387600480360381019061038291906120af565b610909565b6040516103949190612057565b60405180910390f35b6103b760048036038101906103b291906125d4565b61091b565b6040516103c49190611fac565b60405180910390f35b60006103d8826109af565b9050919050565b6060600080546103ee90612643565b80601f016020809104026020016040519081016040528092919081815260200182805461041a90612643565b80156104675780601f1061043c57610100808354040283529160200191610467565b820191906000526020600020905b81548152906001019060200180831161044a57829003601f168201915b5050505050905090565b600061047c82610a10565b5061048682610a98565b9050919050565b61049f828261049a610ad5565b610add565b5050565b6000600880549050905090565b600073ffffffffffffffffffffffffffffffffffffffff168273ffffffffffffffffffffffffffffffffffffffff16036105225760006040517f64a0ae92000000000000000000000000000000000000000000000000000000008152600401610519919061211d565b60405180910390fd5b60006105368383610531610ad5565b610aef565b90508373ffffffffffffffffffffffffffffffffffffffff168173ffffffffffffffffffffffffffffffffffffffff16146105ac578382826040517f64283d7b0000000000000000000000000000000000000000000000000000000081526004016105a393929190612674565b60405180910390fd5b50505050565b60006105bd8361075a565b82106106025782826040517fa57d13dc0000000000000000000000000000000000000000000000000000000081526004016105f99291906126ab565b60405180910390fd5b600660008473ffffffffffffffffffffffffffffffffffffffff1673ffffffffffffffffffffffffffffffffffffffff168152602001908152602001600020600083815260200190815260200160002054905092915050565b610676838383604051806020016040528060008152506108bc565b505050565b60006106856104a3565b82106106cb576000826040517fa57d13dc0000000000000000000000000000000000000000000000000000000081526004016106c29291906126ab565b60405180910390fd5b600882815481106106df576106de6126d4565b5b90600052602060002001549050919050565b6000600b600081548092919061070690612732565b9190505590506107163382610b05565b6107208183610b23565b80600c8460405161073191906127b6565b908152602001604051809103902081905550505050565b600061075382610a10565b9050919050565b60008073ffffffffffffffffffffffffffffffffffffffff168273ffffffffffffffffffffffffffffffffffffffff16036107cd5760006040517f89c62b640000000000000000000000000000000000000000000000000000000081526004016107c4919061211d565b60405180910390fd5b600360008373ffffffffffffffffffffffffffffffffffffffff1673ffffffffffffffffffffffffffffffffffffffff168152602001908152602001600020549050919050565b60606001805461082390612643565b80601f016020809104026020016040519081016040528092919081815260200182805461084f90612643565b801561089c5780601f106108715761010080835404028352916020019161089c565b820191906000526020600020905b81548152906001019060200180831161087f57829003601f168201915b5050505050905090565b6108b86108b1610ad5565b8383610b7f565b5050565b6108c78484846104b0565b6108d384848484610cee565b50505050565b6060610902600c836040516108ee91906127b6565b908152602001604051809103902054610909565b9050919050565b606061091482610ea5565b9050919050565b6000600560008473ffffffffffffffffffffffffffffffffffffffff1673ffffffffffffffffffffffffffffffffffffffff16815260200190815260200160002060008373ffffffffffffffffffffffffffffffffffffffff1673ffffffffffffffffffffffffffffffffffffffff16815260200190815260200160002060009054906101000a900460ff16905092915050565b6000634906490660e01b7bffffffffffffffffffffffffffffffffffffffffffffffffffffffff1916827bffffffffffffffffffffffffffffffffffffffffffffffffffffffff19161480610a095750610a0882610fb8565b5b9050919050565b600080610a1c83611032565b9050600073ffffffffffffffffffffffffffffffffffffffff168173ffffffffffffffffffffffffffffffffffffffff1603610a8f57826040517f7e273289000000000000000000000000000000000000000000000000000000008152600401610a8691906121b3565b60405180910390fd5b80915050919050565b60006004600083815260200190815260200160002060009054906101000a900473ffffffffffffffffffffffffffffffffffffffff169050919050565b600033905090565b610aea838383600161106f565b505050565b6000610afc848484611234565b90509392505050565b610b1f828260405180602001604052806000815250611351565b5050565b80600a60008481526020019081526020016000209081610b439190612979565b507ff8e1a15aba9398e019f0b49df1a4fde98ee17ae345cb5f6b5e2c27f5033e8ce782604051610b7391906121b3565b60405180910390a15050565b600073ffffffffffffffffffffffffffffffffffffffff168273ffffffffffffffffffffffffffffffffffffffff1603610bf057816040517f5b08ba18000000000000000000000000000000000000000000000000000000008152600401610be7919061211d565b60405180910390fd5b80600560008573ffffffffffffffffffffffffffffffffffffffff1673ffffffffffffffffffffffffffffffffffffffff16815260200190815260200160002060008473ffffffffffffffffffffffffffffffffffffffff1673ffffffffffffffffffffffffffffffffffffffff16815260200190815260200160002060006101000a81548160ff0219169083151502179055508173ffffffffffffffffffffffffffffffffffffffff168373ffffffffffffffffffffffffffffffffffffffff167f17307eab39ab6107e8899845ad3d59bd9653f200f220920489ca2b5937696c3183604051610ce19190611fac565b60405180910390a3505050565b60008373ffffffffffffffffffffffffffffffffffffffff163b1115610e9f578273ffffffffffffffffffffffffffffffffffffffff1663150b7a02610d32610ad5565b8685856040518563ffffffff1660e01b8152600401610d549493929190612aa0565b6020604051808303816000875af1925050508015610d9057506040513d601f19601f82011682018060405250810190610d8d9190612b01565b60015b610e14573d8060008114610dc0576040519150601f19603f3d011682016040523d82523d6000602084013e610dc5565b606091505b506000815103610e0c57836040517f64a0ae92000000000000000000000000000000000000000000000000000000008152600401610e03919061211d565b60405180910390fd5b805181602001fd5b63150b7a0260e01b7bffffffffffffffffffffffffffffffffffffffffffffffffffffffff1916817bffffffffffffffffffffffffffffffffffffffffffffffffffffffff191614610e9d57836040517f64a0ae92000000000000000000000000000000000000000000000000000000008152600401610e94919061211d565b60405180910390fd5b505b50505050565b6060610eb082610a10565b506000600a60008481526020019081526020016000208054610ed190612643565b80601f0160208091040260200160405190810160405280929190818152602001828054610efd90612643565b8015610f4a5780601f10610f1f57610100808354040283529160200191610f4a565b820191906000526020600020905b815481529060010190602001808311610f2d57829003601f168201915b505050505090506000610f5b61136d565b90506000815103610f70578192505050610fb3565b600082511115610fa5578082604051602001610f8d929190612b2e565b60405160208183030381529060405292505050610fb3565b610fae84611384565b925050505b919050565b60007f780e9d63000000000000000000000000000000000000000000000000000000007bffffffffffffffffffffffffffffffffffffffffffffffffffffffff1916827bffffffffffffffffffffffffffffffffffffffffffffffffffffffff1916148061102b575061102a826113ed565b5b9050919050565b60006002600083815260200190815260200160002060009054906101000a900473ffffffffffffffffffffffffffffffffffffffff169050919050565b80806110a85750600073ffffffffffffffffffffffffffffffffffffffff168273ffffffffffffffffffffffffffffffffffffffff1614155b156111dc5760006110b884610a10565b9050600073ffffffffffffffffffffffffffffffffffffffff168373ffffffffffffffffffffffffffffffffffffffff161415801561112357508273ffffffffffffffffffffffffffffffffffffffff168173ffffffffffffffffffffffffffffffffffffffff1614155b80156111365750611134818461091b565b155b1561117857826040517fa9fbf51f00000000000000000000000000000000000000000000000000000000815260040161116f919061211d565b60405180910390fd5b81156111da57838573ffffffffffffffffffffffffffffffffffffffff168273ffffffffffffffffffffffffffffffffffffffff167f8c5be1e5ebec7d5bd14f71427d1e84f3dd0314c0f7b2291e5b200ac8c7c3b92560405160405180910390a45b505b836004600085815260200190815260200160002060006101000a81548173ffffffffffffffffffffffffffffffffffffffff021916908373ffffffffffffffffffffffffffffffffffffffff16021790555050505050565b6000806112428585856114cf565b9050600073ffffffffffffffffffffffffffffffffffffffff168173ffffffffffffffffffffffffffffffffffffffff160361128657611281846116e9565b6112c5565b8473ffffffffffffffffffffffffffffffffffffffff168173ffffffffffffffffffffffffffffffffffffffff16146112c4576112c38185611732565b5b5b600073ffffffffffffffffffffffffffffffffffffffff168573ffffffffffffffffffffffffffffffffffffffff16036113075761130284611893565b611346565b8473ffffffffffffffffffffffffffffffffffffffff168173ffffffffffffffffffffffffffffffffffffffff1614611345576113448585611964565b5b5b809150509392505050565b61135b83836119ef565b6113686000848484610cee565b505050565b606060405180602001604052806000815250905090565b606061138f82610a10565b50600061139a61136d565b905060008151116113ba57604051806020016040528060008152506113e5565b806113c484611ae8565b6040516020016113d5929190612b2e565b6040516020818303038152906040525b915050919050565b60007f80ac58cd000000000000000000000000000000000000000000000000000000007bffffffffffffffffffffffffffffffffffffffffffffffffffffffff1916827bffffffffffffffffffffffffffffffffffffffffffffffffffffffff191614806114b857507f5b5e139f000000000000000000000000000000000000000000000000000000007bffffffffffffffffffffffffffffffffffffffffffffffffffffffff1916827bffffffffffffffffffffffffffffffffffffffffffffffffffffffff1916145b806114c857506114c782611bb6565b5b9050919050565b6000806114db84611032565b9050600073ffffffffffffffffffffffffffffffffffffffff168373ffffffffffffffffffffffffffffffffffffffff161461151d5761151c818486611c20565b5b600073ffffffffffffffffffffffffffffffffffffffff168173ffffffffffffffffffffffffffffffffffffffff16146115ae5761155f60008560008061106f565b6001600360008373ffffffffffffffffffffffffffffffffffffffff1673ffffffffffffffffffffffffffffffffffffffff168152602001908152602001600020600082825403925050819055505b600073ffffffffffffffffffffffffffffffffffffffff168573ffffffffffffffffffffffffffffffffffffffff1614611631576001600360008773ffffffffffffffffffffffffffffffffffffffff1673ffffffffffffffffffffffffffffffffffffffff168152602001908152602001600020600082825401925050819055505b846002600086815260200190815260200160002060006101000a81548173ffffffffffffffffffffffffffffffffffffffff021916908373ffffffffffffffffffffffffffffffffffffffff160217905550838573ffffffffffffffffffffffffffffffffffffffff168273ffffffffffffffffffffffffffffffffffffffff167fddf252ad1be2c89b69c2b068fc378daa952ba7f163c4a11628f55a4df523b3ef60405160405180910390a4809150509392505050565b6008805490506009600083815260200190815260200160002081905550600881908060018154018082558091505060019003906000526020600020016000909190919091505550565b600061173d8361075a565b9050600060076000848152602001908152602001600020549050818114611822576000600660008673ffffffffffffffffffffffffffffffffffffffff1673ffffffffffffffffffffffffffffffffffffffff168152602001908152602001600020600084815260200190815260200160002054905080600660008773ffffffffffffffffffffffffffffffffffffffff1673ffffffffffffffffffffffffffffffffffffffff168152602001908152602001600020600084815260200190815260200160002081905550816007600083815260200190815260200160002081905550505b6007600084815260200190815260200160002060009055600660008573ffffffffffffffffffffffffffffffffffffffff1673ffffffffffffffffffffffffffffffffffffffff16815260200190815260200160002060008381526020019081526020016000206000905550505050565b600060016008805490506118a79190612b52565b90506000600960008481526020019081526020016000205490506000600883815481106118d7576118d66126d4565b5b9060005260206000200154905080600883815481106118f9576118f86126d4565b5b90600052602060002001819055508160096000838152602001908152602001600020819055506009600085815260200190815260200160002060009055600880548061194857611947612b86565b5b6001900381819060005260206000200160009055905550505050565b600060016119718461075a565b61197b9190612b52565b905081600660008573ffffffffffffffffffffffffffffffffffffffff1673ffffffffffffffffffffffffffffffffffffffff168152602001908152602001600020600083815260200190815260200160002081905550806007600084815260200190815260200160002081905550505050565b600073ffffffffffffffffffffffffffffffffffffffff168273ffffffffffffffffffffffffffffffffffffffff1603611a615760006040517f64a0ae92000000000000000000000000000000000000000000000000000000008152600401611a58919061211d565b60405180910390fd5b6000611a6f83836000610aef565b9050600073ffffffffffffffffffffffffffffffffffffffff168173ffffffffffffffffffffffffffffffffffffffff1614611ae35760006040517f73c6ac6e000000000000000000000000000000000000000000000000000000008152600401611ada919061211d565b60405180910390fd5b505050565b606060006001611af784611ce4565b01905060008167ffffffffffffffff811115611b1657611b1561222b565b5b6040519080825280601f01601f191660200182016040528015611b485781602001600182028036833780820191505090505b509050600082602001820190505b600115611bab578080600190039150507f3031323334353637383961626364656600000000000000000000000000000000600a86061a8153600a8581611b9f57611b9e612bb5565b5b04945060008503611b56575b819350505050919050565b60007f01ffc9a7000000000000000000000000000000000000000000000000000000007bffffffffffffffffffffffffffffffffffffffffffffffffffffffff1916827bffffffffffffffffffffffffffffffffffffffffffffffffffffffff1916149050919050565b611c2b838383611e37565b611cdf57600073ffffffffffffffffffffffffffffffffffffffff168373ffffffffffffffffffffffffffffffffffffffff1603611ca057806040517f7e273289000000000000000000000000000000000000000000000000000000008152600401611c9791906121b3565b60405180910390fd5b81816040517f177e802f000000000000000000000000000000000000000000000000000000008152600401611cd69291906126ab565b60405180910390fd5b505050565b600080600090507a184f03e93ff9f4daa797ed6e38ed64bf6a1f0100000000000000008310611d42577a184f03e93ff9f4daa797ed6e38ed64bf6a1f0100000000000000008381611d3857611d37612bb5565b5b0492506040810190505b6d04ee2d6d415b85acef81000000008310611d7f576d04ee2d6d415b85acef81000000008381611d7557611d74612bb5565b5b0492506020810190505b662386f26fc100008310611dae57662386f26fc100008381611da457611da3612bb5565b5b0492506010810190505b6305f5e1008310611dd7576305f5e1008381611dcd57611dcc612bb5565b5b0492506008810190505b6127108310611dfc576127108381611df257611df1612bb5565b5b0492506004810190505b60648310611e1f5760648381611e1557611e14612bb5565b5b0492506002810190505b600a8310611e2e576001810190505b80915050919050565b60008073ffffffffffffffffffffffffffffffffffffffff168373ffffffffffffffffffffffffffffffffffffffff1614158015611eef57508273ffffffffffffffffffffffffffffffffffffffff168473ffffffffffffffffffffffffffffffffffffffff161480611eb05750611eaf848461091b565b5b80611eee57508273ffffffffffffffffffffffffffffffffffffffff16611ed683610a98565b73ffffffffffffffffffffffffffffffffffffffff16145b5b90509392505050565b6000604051905090565b600080fd5b600080fd5b60007fffffffff0000000000000000000000000000000000000000000000000000000082169050919050565b611f4181611f0c565b8114611f4c57600080fd5b50565b600081359050611f5e81611f38565b92915050565b600060208284031215611f7a57611f79611f02565b5b6000611f8884828501611f4f565b91505092915050565b60008115159050919050565b611fa681611f91565b82525050565b6000602082019050611fc16000830184611f9d565b92915050565b600081519050919050565b600082825260208201905092915050565b60005b83811015612001578082015181840152602081019050611fe6565b60008484015250505050565b6000601f19601f8301169050919050565b600061202982611fc7565b6120338185611fd2565b9350612043818560208601611fe3565b61204c8161200d565b840191505092915050565b60006020820190508181036000830152612071818461201e565b905092915050565b6000819050919050565b61208c81612079565b811461209757600080fd5b50565b6000813590506120a981612083565b92915050565b6000602082840312156120c5576120c4611f02565b5b60006120d38482850161209a565b91505092915050565b600073ffffffffffffffffffffffffffffffffffffffff82169050919050565b6000612107826120dc565b9050919050565b612117816120fc565b82525050565b6000602082019050612132600083018461210e565b92915050565b612141816120fc565b811461214c57600080fd5b50565b60008135905061215e81612138565b92915050565b6000806040838503121561217b5761217a611f02565b5b60006121898582860161214f565b925050602061219a8582860161209a565b9150509250929050565b6121ad81612079565b82525050565b60006020820190506121c860008301846121a4565b92915050565b6000806000606084860312156121e7576121e6611f02565b5b60006121f58682870161214f565b93505060206122068682870161214f565b92505060406122178682870161209a565b9150509250925092565b600080fd5b600080fd5b7f4e487b7100000000000000000000000000000000000000000000000000000000600052604160045260246000fd5b6122638261200d565b810181811067ffffffffffffffff821117156122825761228161222b565b5b80604052505050565b6000612295611ef8565b90506122a1828261225a565b919050565b600067ffffffffffffffff8211156122c1576122c061222b565b5b6122ca8261200d565b9050602081019050919050565b82818337600083830152505050565b60006122f96122f4846122a6565b61228b565b90508281526020810184848401111561231557612314612226565b5b6123208482856122d7565b509392505050565b600082601f83011261233d5761233c612221565b5b813561234d8482602086016122e6565b91505092915050565b6000806040838503121561236d5761236c611f02565b5b600083013567ffffffffffffffff81111561238b5761238a611f07565b5b61239785828601612328565b925050602083013567ffffffffffffffff8111156123b8576123b7611f07565b5b6123c485828601612328565b9150509250929050565b6000602082840312156123e4576123e3611f02565b5b60006123f28482850161214f565b91505092915050565b61240481611f91565b811461240f57600080fd5b50565b600081359050612421816123fb565b92915050565b6000806040838503121561243e5761243d611f02565b5b600061244c8582860161214f565b925050602061245d85828601612412565b9150509250929050565b600067ffffffffffffffff8211156124825761248161222b565b5b61248b8261200d565b9050602081019050919050565b60006124ab6124a684612467565b61228b565b9050828152602081018484840111156124c7576124c6612226565b5b6124d28482856122d7565b509392505050565b600082601f8301126124ef576124ee612221565b5b81356124ff848260208601612498565b91505092915050565b6000806000806080858703121561252257612521611f02565b5b60006125308782880161214f565b94505060206125418782880161214f565b93505060406125528782880161209a565b925050606085013567ffffffffffffffff81111561257357612572611f07565b5b61257f878288016124da565b91505092959194509250565b6000602082840312156125a1576125a0611f02565b5b600082013567ffffffffffffffff8111156125bf576125be611f07565b5b6125cb84828501612328565b91505092915050565b600080604083850312156125eb576125ea611f02565b5b60006125f98582860161214f565b925050602061260a8582860161214f565b9150509250929050565b7f4e487b7100000000000000000000000000000000000000000000000000000000600052602260045260246000fd5b6000600282049050600182168061265b57607f821691505b60208210810361266e5761266d612614565b5b50919050565b6000606082019050612689600083018661210e565b61269660208301856121a4565b6126a3604083018461210e565b949350505050565b60006040820190506126c0600083018561210e565b6126cd60208301846121a4565b9392505050565b7f4e487b7100000000000000000000000000000000000000000000000000000000600052603260045260246000fd5b7f4e487b7100000000000000000000000000000000000000000000000000000000600052601160045260246000fd5b600061273d82612079565b91507fffffffffffffffffffffffffffffffffffffffffffffffffffffffffffffffff820361276f5761276e612703565b5b600182019050919050565b600081905092915050565b600061279082611fc7565b61279a818561277a565b93506127aa818560208601611fe3565b80840191505092915050565b60006127c28284612785565b915081905092915050565b60008190508160005260206000209050919050565b60006020601f8301049050919050565b600082821b905092915050565b60006008830261282f7fffffffffffffffffffffffffffffffffffffffffffffffffffffffffffffffff826127f2565b61283986836127f2565b95508019841693508086168417925050509392505050565b6000819050919050565b600061287661287161286c84612079565b612851565b612079565b9050919050565b6000819050919050565b6128908361285b565b6128a461289c8261287d565b8484546127ff565b825550505050565b600090565b6128b96128ac565b6128c4818484612887565b505050565b5b818110156128e8576128dd6000826128b1565b6001810190506128ca565b5050565b601f82111561292d576128fe816127cd565b612907846127e2565b81016020851015612916578190505b61292a612922856127e2565b8301826128c9565b50505b505050565b600082821c905092915050565b600061295060001984600802612932565b1980831691505092915050565b6000612969838361293f565b9150826002028217905092915050565b61298282611fc7565b67ffffffffffffffff81111561299b5761299a61222b565b5b6129a58254612643565b6129b08282856128ec565b600060209050601f8311600181146129e357600084156129d1578287015190505b6129db858261295d565b865550612a43565b601f1984166129f1866127cd565b60005b82811015612a19578489015182556001820191506020850194506020810190506129f4565b86831015612a365784890151612a32601f89168261293f565b8355505b6001600288020188555050505b505050505050565b600081519050919050565b600082825260208201905092915050565b6000612a7282612a4b565b612a7c8185612a56565b9350612a8c818560208601611fe3565b612a958161200d565b840191505092915050565b6000608082019050612ab5600083018761210e565b612ac2602083018661210e565b612acf60408301856121a4565b8181036060830152612ae18184612a67565b905095945050505050565b600081519050612afb81611f38565b92915050565b600060208284031215612b1757612b16611f02565b5b6000612b2584828501612aec565b91505092915050565b6000612b3a8285612785565b9150612b468284612785565b91508190509392505050565b6000612b5d82612079565b9150612b6883612079565b9250828203905081811115612b8057612b7f612703565b5b92915050565b7f4e487b7100000000000000000000000000000000000000000000000000000000600052603160045260246000fd5b7f4e487b7100000000000000000000000000000000000000000000000000000000600052601260045260246000fdfea2646970667358221220a6c6092e678374dd949f5794cb07bd397dc8b6d4706fbb11cef772ec878e5a2f64736f6c63430008170033",
  "linkReferences": {},
  "deployedLinkReferences": {}
}