{
  "_format": "hh-sol-artifact-1",
  "contractName": "TealOwl",
  "sourceName": "contracts/TealOwl.sol",
  "abi": [
    {
      "inputs": [
        {
          "internalType": "address",
          "name": "defaultAdmin",
          "type": "address"
        },
        {
          "internalType": "address",
          "name": "minter",
          "type": "address"
        }
      ],
      "stateMutability": "nonpayable",
      "type": "constructor"
    },
    {
      "inputs": [],
      "name": "ERC721EnumerableForbiddenBatchMint",
      "type": "error"
    },
    {
      "inputs": [
        {
          "internalType": "address",
          "name": "sender",
          "type": "address"
        },
        {
          "internalType": "uint256",
          "name": "tokenId",
          "type": "uint256"
        },
        {
          "internalType": "address",
          "name": "owner",
          "type": "address"
        }
      ],
      "name": "ERC721IncorrectOwner",
      "type": "error"
    },
    {
      "inputs": [
        {
          "internalType": "address",
          "name": "operator",
          "type": "address"
        },
        {
          "internalType": "uint256",
          "name": "tokenId",
          "type": "uint256"
        }
      ],
      "name": "ERC721InsufficientApproval",
      "type": "error"
    },
    {
      "inputs": [
        {
          "internalType": "address",
          "name": "approver",
          "type": "address"
        }
      ],
      "name": "ERC721InvalidApprover",
      "type": "error"
    },
    {
      "inputs": [
        {
          "internalType": "address",
          "name": "operator",
          "type": "address"
        }
      ],
      "name": "ERC721InvalidOperator",
      "type": "error"
    },
    {
      "inputs": [
        {
          "internalType": "address",
          "name": "owner",
          "type": "address"
        }
      ],
      "name": "ERC721InvalidOwner",
      "type": "error"
    },
    {
      "inputs": [
        {
          "internalType": "address",
          "name": "receiver",
          "type": "address"
        }
      ],
      "name": "ERC721InvalidReceiver",
      "type": "error"
    },
    {
      "inputs": [
        {
          "internalType": "address",
          "name": "sender",
          "type": "address"
        }
      ],
      "name": "ERC721InvalidSender",
      "type": "error"
    },
    {
      "inputs": [
        {
          "internalType": "uint256",
          "name": "tokenId",
          "type": "uint256"
        }
      ],
      "name": "ERC721NonexistentToken",
      "type": "error"
    },
    {
      "inputs": [
        {
          "internalType": "address",
          "name": "owner",
          "type": "address"
        },
        {
          "internalType": "uint256",
          "name": "index",
          "type": "uint256"
        }
      ],
      "name": "ERC721OutOfBoundsIndex",
      "type": "error"
    },
    {
      "anonymous": false,
      "inputs": [
        {
          "indexed": true,
          "internalType": "address",
          "name": "owner",
          "type": "address"
        },
        {
          "indexed": true,
          "internalType": "address",
          "name": "approved",
          "type": "address"
        },
        {
          "indexed": true,
          "internalType": "uint256",
          "name": "tokenId",
          "type": "uint256"
        }
      ],
      "name": "Approval",
      "type": "event"
    },
    {
      "anonymous": false,
      "inputs": [
        {
          "indexed": true,
          "internalType": "address",
          "name": "owner",
          "type": "address"
        },
        {
          "indexed": true,
          "internalType": "address",
          "name": "operator",
          "type": "address"
        },
        {
          "indexed": false,
          "internalType": "bool",
          "name": "approved",
          "type": "bool"
        }
      ],
      "name": "ApprovalForAll",
      "type": "event"
    },
    {
      "anonymous": false,
      "inputs": [
        {
          "indexed": false,
          "internalType": "uint256",
          "name": "_fromTokenId",
          "type": "uint256"
        },
        {
          "indexed": false,
          "internalType": "uint256",
          "name": "_toTokenId",
          "type": "uint256"
        }
      ],
      "name": "BatchMetadataUpdate",
      "type": "event"
    },
    {
      "anonymous": false,
      "inputs": [
        {
          "indexed": false,
          "internalType": "uint256",
          "name": "_tokenId",
          "type": "uint256"
        }
      ],
      "name": "MetadataUpdate",
      "type": "event"
    },
    {
      "anonymous": false,
      "inputs": [
        {
          "indexed": true,
          "internalType": "address",
          "name": "from",
          "type": "address"
        },
        {
          "indexed": true,
          "internalType": "address",
          "name": "to",
          "type": "address"
        },
        {
          "indexed": true,
          "internalType": "uint256",
          "name": "tokenId",
          "type": "uint256"
        }
      ],
      "name": "Transfer",
      "type": "event"
    },
    {
      "inputs": [
        {
          "internalType": "address",
          "name": "to",
          "type": "address"
        },
        {
          "internalType": "uint256",
          "name": "tokenId",
          "type": "uint256"
        }
      ],
      "name": "approve",
      "outputs": [],
      "stateMutability": "nonpayable",
      "type": "function"
    },
    {
      "inputs": [
        {
          "internalType": "address",
          "name": "owner",
          "type": "address"
        }
      ],
      "name": "balanceOf",
      "outputs": [
        {
          "internalType": "uint256",
          "name": "",
          "type": "uint256"
        }
      ],
      "stateMutability": "view",
      "type": "function"
    },
    {
      "inputs": [
        {
          "internalType": "uint256",
          "name": "tokenId",
          "type": "uint256"
        }
      ],
      "name": "getApproved",
      "outputs": [
        {
          "internalType": "address",
          "name": "",
          "type": "address"
        }
      ],
      "stateMutability": "view",
      "type": "function"
    },
    {
      "inputs": [
        {
          "internalType": "address",
          "name": "owner",
          "type": "address"
        },
        {
          "internalType": "address",
          "name": "operator",
          "type": "address"
        }
      ],
      "name": "isApprovedForAll",
      "outputs": [
        {
          "internalType": "bool",
          "name": "",
          "type": "bool"
        }
      ],
      "stateMutability": "view",
      "type": "function"
    },
    {
      "inputs": [],
      "name": "name",
      "outputs": [
        {
          "internalType": "string",
          "name": "",
          "type": "string"
        }
      ],
      "stateMutability": "view",
      "type": "function"
    },
    {
      "inputs": [
        {
          "internalType": "uint256",
          "name": "tokenId",
          "type": "uint256"
        }
      ],
      "name": "ownerOf",
      "outputs": [
        {
          "internalType": "address",
          "name": "",
          "type": "address"
        }
      ],
      "stateMutability": "view",
      "type": "function"
    },
    {
      "inputs": [
        {
          "internalType": "string",
          "name": "toTokenID",
          "type": "string"
        },
        {
          "internalType": "string",
          "name": "uri",
          "type": "string"
        }
      ],
      "name": "safeMint",
      "outputs": [],
      "stateMutability": "nonpayable",
      "type": "function"
    },
    {
      "inputs": [
        {
          "internalType": "address",
          "name": "from",
          "type": "address"
        },
        {
          "internalType": "address",
          "name": "to",
          "type": "address"
        },
        {
          "internalType": "uint256",
          "name": "tokenId",
          "type": "uint256"
        }
      ],
      "name": "safeTransferFrom",
      "outputs": [],
      "stateMutability": "nonpayable",
      "type": "function"
    },
    {
      "inputs": [
        {
          "internalType": "address",
          "name": "from",
          "type": "address"
        },
        {
          "internalType": "address",
          "name": "to",
          "type": "address"
        },
        {
          "internalType": "uint256",
          "name": "tokenId",
          "type": "uint256"
        },
        {
          "internalType": "bytes",
          "name": "data",
          "type": "bytes"
        }
      ],
      "name": "safeTransferFrom",
      "outputs": [],
      "stateMutability": "nonpayable",
      "type": "function"
    },
    {
      "inputs": [
        {
          "internalType": "address",
          "name": "operator",
          "type": "address"
        },
        {
          "internalType": "bool",
          "name": "approved",
          "type": "bool"
        }
      ],
      "name": "setApprovalForAll",
      "outputs": [],
      "stateMutability": "nonpayable",
      "type": "function"
    },
    {
      "inputs": [
        {
          "internalType": "bytes4",
          "name": "interfaceId",
          "type": "bytes4"
        }
      ],
      "name": "supportsInterface",
      "outputs": [
        {
          "internalType": "bool",
          "name": "",
          "type": "bool"
        }
      ],
      "stateMutability": "view",
      "type": "function"
    },
    {
      "inputs": [],
      "name": "symbol",
      "outputs": [
        {
          "internalType": "string",
          "name": "",
          "type": "string"
        }
      ],
      "stateMutability": "view",
      "type": "function"
    },
    {
      "inputs": [
        {
          "internalType": "uint256",
          "name": "index",
          "type": "uint256"
        }
      ],
      "name": "tokenByIndex",
      "outputs": [
        {
          "internalType": "uint256",
          "name": "",
          "type": "uint256"
        }
      ],
      "stateMutability": "view",
      "type": "function"
    },
    {
      "inputs": [
        {
          "internalType": "address",
          "name": "owner",
          "type": "address"
        },
        {
          "internalType": "uint256",
          "name": "index",
          "type": "uint256"
        }
      ],
      "name": "tokenOfOwnerByIndex",
      "outputs": [
        {
          "internalType": "uint256",
          "name": "",
          "type": "uint256"
        }
      ],
      "stateMutability": "view",
      "type": "function"
    },
    {
      "inputs": [
        {
          "internalType": "uint256",
          "name": "tokenId",
          "type": "uint256"
        }
      ],
      "name": "tokenURI",
      "outputs": [
        {
          "internalType": "string",
          "name": "",
          "type": "string"
        }
      ],
      "stateMutability": "view",
      "type": "function"
    },
    {
      "inputs": [
        {
          "internalType": "string",
          "name": "toTokenID",
          "type": "string"
        }
      ],
      "name": "tokenURIS",
      "outputs": [
        {
          "internalType": "string",
          "name": "",
          "type": "string"
        }
      ],
      "stateMutability": "view",
      "type": "function"
    },
    {
      "inputs": [],
      "name": "totalSupply",
      "outputs": [
        {
          "internalType": "uint256",
          "name": "",
          "type": "uint256"
        }
      ],
      "stateMutability": "view",
      "type": "function"
    },
    {
      "inputs": [
        {
          "internalType": "address",
          "name": "from",
          "type": "address"
        },
        {
          "internalType": "address",
          "name": "to",
          "type": "address"
        },
        {
          "internalType": "uint256",
          "name": "tokenId",
          "type": "uint256"
        }
      ],
      "name": "transferFrom",
      "outputs": [],
      "stateMutability": "nonpayable",
      "type": "function"
    }
  ],
  "bytecode": "0x60806040526001600b553480156200001657600080fd5b50604051620034943803806200349483398181016040528101906200003c919062000140565b6040518060400160405280600881526020017f5465616c2d4f776c0000000000000000000000000000000000000000000000008152506040518060400160405280600281526020017f544f0000000000000000000000000000000000000000000000000000000000008152508160009081620000b9919062000401565b508060019081620000cb919062000401565b5050505050620004e8565b600080fd5b600073ffffffffffffffffffffffffffffffffffffffff82169050919050565b60006200010882620000db565b9050919050565b6200011a81620000fb565b81146200012657600080fd5b50565b6000815190506200013a816200010f565b92915050565b600080604083850312156200015a5762000159620000d6565b5b60006200016a8582860162000129565b92505060206200017d8582860162000129565b9150509250929050565b600081519050919050565b7f4e487b7100000000000000000000000000000000000000000000000000000000600052604160045260246000fd5b7f4e487b7100000000000000000000000000000000000000000000000000000000600052602260045260246000fd5b600060028204905060018216806200020957607f821691505b6020821081036200021f576200021e620001c1565b5b50919050565b60008190508160005260206000209050919050565b60006020601f8301049050919050565b600082821b905092915050565b600060088302620002897fffffffffffffffffffffffffffffffffffffffffffffffffffffffffffffffff826200024a565b6200029586836200024a565b95508019841693508086168417925050509392505050565b6000819050919050565b6000819050919050565b6000620002e2620002dc620002d684620002ad565b620002b7565b620002ad565b9050919050565b6000819050919050565b620002fe83620002c1565b620003166200030d82620002e9565b84845462000257565b825550505050565b600090565b6200032d6200031e565b6200033a818484620002f3565b505050565b5b8181101562000362576200035660008262000323565b60018101905062000340565b5050565b601f821115620003b1576200037b8162000225565b62000386846200023a565b8101602085101562000396578190505b620003ae620003a5856200023a565b8301826200033f565b50505b505050565b600082821c905092915050565b6000620003d660001984600802620003b6565b1980831691505092915050565b6000620003f18383620003c3565b9150826002028217905092915050565b6200040c8262000187565b67ffffffffffffffff81111562000428576200042762000192565b5b620004348254620001f0565b6200044182828562000366565b600060209050601f83116001811462000479576000841562000464578287015190505b620004708582620003e3565b865550620004e0565b601f198416620004898662000225565b60005b82811015620004b3578489015182556001820191506020850194506020810190506200048c565b86831015620004d35784890151620004cf601f891682620003c3565b8355505b6001600288020188555050505b505050505050565b612f9c80620004f86000396000f3fe608060405234801561001057600080fd5b50600436106101165760003560e01c80634fa1f7ae116100a2578063a22cb46511610071578063a22cb46514610305578063b88d4fde14610321578063bb85df451461033d578063c87b56dd1461036d578063e985e9c51461039d57610116565b80634fa1f7ae1461026b5780636352211e1461028757806370a08231146102b757806395d89b41146102e757610116565b806318160ddd116100e957806318160ddd146101b557806323b872dd146101d35780632f745c59146101ef57806342842e0e1461021f5780634f6ccce71461023b57610116565b806301ffc9a71461011b57806306fdde031461014b578063081812fc14610169578063095ea7b314610199575b600080fd5b610135600480360381019061013091906121c1565b6103cd565b6040516101429190612209565b60405180910390f35b6101536103df565b60405161016091906122b4565b60405180910390f35b610183600480360381019061017e919061230c565b610471565b604051610190919061237a565b60405180910390f35b6101b360048036038101906101ae91906123c1565b61048d565b005b6101bd6104a3565b6040516101ca9190612410565b60405180910390f35b6101ed60048036038101906101e8919061242b565b6104b0565b005b610209600480360381019061020491906123c1565b6105b2565b6040516102169190612410565b60405180910390f35b6102396004803603810190610234919061242b565b61065b565b005b6102556004803603810190610250919061230c565b61067b565b6040516102629190612410565b60405180910390f35b610285600480360381019061028091906125b3565b6106f1565b005b6102a1600480360381019061029c919061230c565b610748565b6040516102ae919061237a565b60405180910390f35b6102d160048036038101906102cc919061262b565b61075a565b6040516102de9190612410565b60405180910390f35b6102ef610814565b6040516102fc91906122b4565b60405180910390f35b61031f600480360381019061031a9190612684565b6108a6565b005b61033b60048036038101906103369190612765565b6108bc565b005b610357600480360381019061035291906127e8565b6108d9565b60405161036491906122b4565b60405180910390f35b6103876004803603810190610382919061230c565b610992565b60405161039491906122b4565b60405180910390f35b6103b760048036038101906103b29190612831565b6109ea565b6040516103c49190612209565b60405180910390f35b60006103d882610a7e565b9050919050565b6060600080546103ee906128a0565b80601f016020809104026020016040519081016040528092919081815260200182805461041a906128a0565b80156104675780601f1061043c57610100808354040283529160200191610467565b820191906000526020600020905b81548152906001019060200180831161044a57829003601f168201915b5050505050905090565b600061047c82610adf565b5061048682610b67565b9050919050565b61049f828261049a610ba4565b610bac565b5050565b6000600880549050905090565b600073ffffffffffffffffffffffffffffffffffffffff168273ffffffffffffffffffffffffffffffffffffffff16036105225760006040517f64a0ae92000000000000000000000000000000000000000000000000000000008152600401610519919061237a565b60405180910390fd5b60006105368383610531610ba4565b610bbe565b90508373ffffffffffffffffffffffffffffffffffffffff168173ffffffffffffffffffffffffffffffffffffffff16146105ac578382826040517f64283d7b0000000000000000000000000000000000000000000000000000000081526004016105a3939291906128d1565b60405180910390fd5b50505050565b60006105bd8361075a565b82106106025782826040517fa57d13dc0000000000000000000000000000000000000000000000000000000081526004016105f9929190612908565b60405180910390fd5b600660008473ffffffffffffffffffffffffffffffffffffffff1673ffffffffffffffffffffffffffffffffffffffff168152602001908152602001600020600083815260200190815260200160002054905092915050565b610676838383604051806020016040528060008152506108bc565b505050565b60006106856104a3565b82106106cb576000826040517fa57d13dc0000000000000000000000000000000000000000000000000000000081526004016106c2929190612908565b60405180910390fd5b600882815481106106df576106de612931565b5b90600052602060002001549050919050565b6000600b60008154809291906107069061298f565b9190505590506107163382610bd4565b6107208183610bf2565b80600c846040516107319190612a13565b908152602001604051809103902081905550505050565b600061075382610adf565b9050919050565b60008073ffffffffffffffffffffffffffffffffffffffff168273ffffffffffffffffffffffffffffffffffffffff16036107cd5760006040517f89c62b640000000000000000000000000000000000000000000000000000000081526004016107c4919061237a565b60405180910390fd5b600360008373ffffffffffffffffffffffffffffffffffffffff1673ffffffffffffffffffffffffffffffffffffffff168152602001908152602001600020549050919050565b606060018054610823906128a0565b80601f016020809104026020016040519081016040528092919081815260200182805461084f906128a0565b801561089c5780601f106108715761010080835404028352916020019161089c565b820191906000526020600020905b81548152906001019060200180831161087f57829003601f168201915b5050505050905090565b6108b86108b1610ba4565b8383610c4e565b5050565b6108c78484846104b0565b6108d384848484610dbd565b50505050565b60606000600c836040516108ed9190612a13565b908152602001604051809103902054905060008111610941576040517f08c379a000000000000000000000000000000000000000000000000000000000815260040161093890612a76565b60405180910390fd5b6109816040518060400160405280600981526020017f746f6b656e5552495300000000000000000000000000000000000000000000008152508483610f74565b61098a81610992565b915050919050565b6060600061099f83611013565b90506109e16040518060400160405280600881526020017f746f6b656e5552490000000000000000000000000000000000000000000000008152508483611126565b80915050919050565b6000600560008473ffffffffffffffffffffffffffffffffffffffff1673ffffffffffffffffffffffffffffffffffffffff16815260200190815260200160002060008373ffffffffffffffffffffffffffffffffffffffff1673ffffffffffffffffffffffffffffffffffffffff16815260200190815260200160002060009054906101000a900460ff16905092915050565b6000634906490660e01b7bffffffffffffffffffffffffffffffffffffffffffffffffffffffff1916827bffffffffffffffffffffffffffffffffffffffffffffffffffffffff19161480610ad85750610ad7826111c5565b5b9050919050565b600080610aeb8361123f565b9050600073ffffffffffffffffffffffffffffffffffffffff168173ffffffffffffffffffffffffffffffffffffffff1603610b5e57826040517f7e273289000000000000000000000000000000000000000000000000000000008152600401610b559190612410565b60405180910390fd5b80915050919050565b60006004600083815260200190815260200160002060009054906101000a900473ffffffffffffffffffffffffffffffffffffffff169050919050565b600033905090565b610bb9838383600161127c565b505050565b6000610bcb848484611441565b90509392505050565b610bee82826040518060200160405280600081525061155e565b5050565b80600a60008481526020019081526020016000209081610c129190612c42565b507ff8e1a15aba9398e019f0b49df1a4fde98ee17ae345cb5f6b5e2c27f5033e8ce782604051610c429190612410565b60405180910390a15050565b600073ffffffffffffffffffffffffffffffffffffffff168273ffffffffffffffffffffffffffffffffffffffff1603610cbf57816040517f5b08ba18000000000000000000000000000000000000000000000000000000008152600401610cb6919061237a565b60405180910390fd5b80600560008573ffffffffffffffffffffffffffffffffffffffff1673ffffffffffffffffffffffffffffffffffffffff16815260200190815260200160002060008473ffffffffffffffffffffffffffffffffffffffff1673ffffffffffffffffffffffffffffffffffffffff16815260200190815260200160002060006101000a81548160ff0219169083151502179055508173ffffffffffffffffffffffffffffffffffffffff168373ffffffffffffffffffffffffffffffffffffffff167f17307eab39ab6107e8899845ad3d59bd9653f200f220920489ca2b5937696c3183604051610db09190612209565b60405180910390a3505050565b60008373ffffffffffffffffffffffffffffffffffffffff163b1115610f6e578273ffffffffffffffffffffffffffffffffffffffff1663150b7a02610e01610ba4565b8685856040518563ffffffff1660e01b8152600401610e239493929190612d69565b6020604051808303816000875af1925050508015610e5f57506040513d601f19601f82011682018060405250810190610e5c9190612dca565b60015b610ee3573d8060008114610e8f576040519150601f19603f3d011682016040523d82523d6000602084013e610e94565b606091505b506000815103610edb57836040517f64a0ae92000000000000000000000000000000000000000000000000000000008152600401610ed2919061237a565b60405180910390fd5b805181602001fd5b63150b7a0260e01b7bffffffffffffffffffffffffffffffffffffffffffffffffffffffff1916817bffffffffffffffffffffffffffffffffffffffffffffffffffffffff191614610f6c57836040517f64a0ae92000000000000000000000000000000000000000000000000000000008152600401610f63919061237a565b60405180910390fd5b505b50505050565b61100e838383604051602401610f8c93929190612df7565b6040516020818303038152906040527f5821efa1000000000000000000000000000000000000000000000000000000007bffffffffffffffffffffffffffffffffffffffffffffffffffffffff19166020820180517bffffffffffffffffffffffffffffffffffffffffffffffffffffffff838183161783525050505061157a565b505050565b606061101e82610adf565b506000600a6000848152602001908152602001600020805461103f906128a0565b80601f016020809104026020016040519081016040528092919081815260200182805461106b906128a0565b80156110b85780601f1061108d576101008083540402835291602001916110b8565b820191906000526020600020905b81548152906001019060200180831161109b57829003601f168201915b5050505050905060006110c9611594565b905060008151036110de578192505050611121565b6000825111156111135780826040516020016110fb929190612e3c565b60405160208183030381529060405292505050611121565b61111c846115ab565b925050505b919050565b6111c083838360405160240161113e93929190612e60565b6040516020818303038152906040527f5970e089000000000000000000000000000000000000000000000000000000007bffffffffffffffffffffffffffffffffffffffffffffffffffffffff19166020820180517bffffffffffffffffffffffffffffffffffffffffffffffffffffffff838183161783525050505061157a565b505050565b60007f780e9d63000000000000000000000000000000000000000000000000000000007bffffffffffffffffffffffffffffffffffffffffffffffffffffffff1916827bffffffffffffffffffffffffffffffffffffffffffffffffffffffff19161480611238575061123782611614565b5b9050919050565b60006002600083815260200190815260200160002060009054906101000a900473ffffffffffffffffffffffffffffffffffffffff169050919050565b80806112b55750600073ffffffffffffffffffffffffffffffffffffffff168273ffffffffffffffffffffffffffffffffffffffff1614155b156113e95760006112c584610adf565b9050600073ffffffffffffffffffffffffffffffffffffffff168373ffffffffffffffffffffffffffffffffffffffff161415801561133057508273ffffffffffffffffffffffffffffffffffffffff168173ffffffffffffffffffffffffffffffffffffffff1614155b8015611343575061134181846109ea565b155b1561138557826040517fa9fbf51f00000000000000000000000000000000000000000000000000000000815260040161137c919061237a565b60405180910390fd5b81156113e757838573ffffffffffffffffffffffffffffffffffffffff168273ffffffffffffffffffffffffffffffffffffffff167f8c5be1e5ebec7d5bd14f71427d1e84f3dd0314c0f7b2291e5b200ac8c7c3b92560405160405180910390a45b505b836004600085815260200190815260200160002060006101000a81548173ffffffffffffffffffffffffffffffffffffffff021916908373ffffffffffffffffffffffffffffffffffffffff16021790555050505050565b60008061144f8585856116f6565b9050600073ffffffffffffffffffffffffffffffffffffffff168173ffffffffffffffffffffffffffffffffffffffff16036114935761148e84611910565b6114d2565b8473ffffffffffffffffffffffffffffffffffffffff168173ffffffffffffffffffffffffffffffffffffffff16146114d1576114d08185611959565b5b5b600073ffffffffffffffffffffffffffffffffffffffff168573ffffffffffffffffffffffffffffffffffffffff16036115145761150f84611aba565b611553565b8473ffffffffffffffffffffffffffffffffffffffff168173ffffffffffffffffffffffffffffffffffffffff1614611552576115518585611b8b565b5b5b809150509392505050565b6115688383611c16565b6115756000848484610dbd565b505050565b61159181611589611d0f611d30565b63ffffffff16565b50565b606060405180602001604052806000815250905090565b60606115b682610adf565b5060006115c1611594565b905060008151116115e1576040518060200160405280600081525061160c565b806115eb84611d3b565b6040516020016115fc929190612e3c565b6040516020818303038152906040525b915050919050565b60007f80ac58cd000000000000000000000000000000000000000000000000000000007bffffffffffffffffffffffffffffffffffffffffffffffffffffffff1916827bffffffffffffffffffffffffffffffffffffffffffffffffffffffff191614806116df57507f5b5e139f000000000000000000000000000000000000000000000000000000007bffffffffffffffffffffffffffffffffffffffffffffffffffffffff1916827bffffffffffffffffffffffffffffffffffffffffffffffffffffffff1916145b806116ef57506116ee82611e09565b5b9050919050565b6000806117028461123f565b9050600073ffffffffffffffffffffffffffffffffffffffff168373ffffffffffffffffffffffffffffffffffffffff161461174457611743818486611e73565b5b600073ffffffffffffffffffffffffffffffffffffffff168173ffffffffffffffffffffffffffffffffffffffff16146117d55761178660008560008061127c565b6001600360008373ffffffffffffffffffffffffffffffffffffffff1673ffffffffffffffffffffffffffffffffffffffff168152602001908152602001600020600082825403925050819055505b600073ffffffffffffffffffffffffffffffffffffffff168573ffffffffffffffffffffffffffffffffffffffff1614611858576001600360008773ffffffffffffffffffffffffffffffffffffffff1673ffffffffffffffffffffffffffffffffffffffff168152602001908152602001600020600082825401925050819055505b846002600086815260200190815260200160002060006101000a81548173ffffffffffffffffffffffffffffffffffffffff021916908373ffffffffffffffffffffffffffffffffffffffff160217905550838573ffffffffffffffffffffffffffffffffffffffff168273ffffffffffffffffffffffffffffffffffffffff167fddf252ad1be2c89b69c2b068fc378daa952ba7f163c4a11628f55a4df523b3ef60405160405180910390a4809150509392505050565b6008805490506009600083815260200190815260200160002081905550600881908060018154018082558091505060019003906000526020600020016000909190919091505550565b60006119648361075a565b9050600060076000848152602001908152602001600020549050818114611a49576000600660008673ffffffffffffffffffffffffffffffffffffffff1673ffffffffffffffffffffffffffffffffffffffff168152602001908152602001600020600084815260200190815260200160002054905080600660008773ffffffffffffffffffffffffffffffffffffffff1673ffffffffffffffffffffffffffffffffffffffff168152602001908152602001600020600084815260200190815260200160002081905550816007600083815260200190815260200160002081905550505b6007600084815260200190815260200160002060009055600660008573ffffffffffffffffffffffffffffffffffffffff1673ffffffffffffffffffffffffffffffffffffffff16815260200190815260200160002060008381526020019081526020016000206000905550505050565b60006001600880549050611ace9190612ea5565b9050600060096000848152602001908152602001600020549050600060088381548110611afe57611afd612931565b5b906000526020600020015490508060088381548110611b2057611b1f612931565b5b906000526020600020018190555081600960008381526020019081526020016000208190555060096000858152602001908152602001600020600090556008805480611b6f57611b6e612ed9565b5b6001900381819060005260206000200160009055905550505050565b60006001611b988461075a565b611ba29190612ea5565b905081600660008573ffffffffffffffffffffffffffffffffffffffff1673ffffffffffffffffffffffffffffffffffffffff168152602001908152602001600020600083815260200190815260200160002081905550806007600084815260200190815260200160002081905550505050565b600073ffffffffffffffffffffffffffffffffffffffff168273ffffffffffffffffffffffffffffffffffffffff1603611c885760006040517f64a0ae92000000000000000000000000000000000000000000000000000000008152600401611c7f919061237a565b60405180910390fd5b6000611c9683836000610bbe565b9050600073ffffffffffffffffffffffffffffffffffffffff168173ffffffffffffffffffffffffffffffffffffffff1614611d0a5760006040517f73c6ac6e000000000000000000000000000000000000000000000000000000008152600401611d01919061237a565b60405180910390fd5b505050565b60006a636f6e736f6c652e6c6f679050600080835160208501845afa505050565b61214b819050919050565b606060006001611d4a84611f37565b01905060008167ffffffffffffffff811115611d6957611d68612488565b5b6040519080825280601f01601f191660200182016040528015611d9b5781602001600182028036833780820191505090505b509050600082602001820190505b600115611dfe578080600190039150507f3031323334353637383961626364656600000000000000000000000000000000600a86061a8153600a8581611df257611df1612f08565b5b04945060008503611da9575b819350505050919050565b60007f01ffc9a7000000000000000000000000000000000000000000000000000000007bffffffffffffffffffffffffffffffffffffffffffffffffffffffff1916827bffffffffffffffffffffffffffffffffffffffffffffffffffffffff1916149050919050565b611e7e83838361208a565b611f3257600073ffffffffffffffffffffffffffffffffffffffff168373ffffffffffffffffffffffffffffffffffffffff1603611ef357806040517f7e273289000000000000000000000000000000000000000000000000000000008152600401611eea9190612410565b60405180910390fd5b81816040517f177e802f000000000000000000000000000000000000000000000000000000008152600401611f29929190612908565b60405180910390fd5b505050565b600080600090507a184f03e93ff9f4daa797ed6e38ed64bf6a1f0100000000000000008310611f95577a184f03e93ff9f4daa797ed6e38ed64bf6a1f0100000000000000008381611f8b57611f8a612f08565b5b0492506040810190505b6d04ee2d6d415b85acef81000000008310611fd2576d04ee2d6d415b85acef81000000008381611fc857611fc7612f08565b5b0492506020810190505b662386f26fc10000831061200157662386f26fc100008381611ff757611ff6612f08565b5b0492506010810190505b6305f5e100831061202a576305f5e10083816120205761201f612f08565b5b0492506008810190505b612710831061204f57612710838161204557612044612f08565b5b0492506004810190505b60648310612072576064838161206857612067612f08565b5b0492506002810190505b600a8310612081576001810190505b80915050919050565b60008073ffffffffffffffffffffffffffffffffffffffff168373ffffffffffffffffffffffffffffffffffffffff161415801561214257508273ffffffffffffffffffffffffffffffffffffffff168473ffffffffffffffffffffffffffffffffffffffff161480612103575061210284846109ea565b5b8061214157508273ffffffffffffffffffffffffffffffffffffffff1661212983610b67565b73ffffffffffffffffffffffffffffffffffffffff16145b5b90509392505050565b612153612f37565b565b6000604051905090565b600080fd5b600080fd5b60007fffffffff0000000000000000000000000000000000000000000000000000000082169050919050565b61219e81612169565b81146121a957600080fd5b50565b6000813590506121bb81612195565b92915050565b6000602082840312156121d7576121d661215f565b5b60006121e5848285016121ac565b91505092915050565b60008115159050919050565b612203816121ee565b82525050565b600060208201905061221e60008301846121fa565b92915050565b600081519050919050565b600082825260208201905092915050565b60005b8381101561225e578082015181840152602081019050612243565b60008484015250505050565b6000601f19601f8301169050919050565b600061228682612224565b612290818561222f565b93506122a0818560208601612240565b6122a98161226a565b840191505092915050565b600060208201905081810360008301526122ce818461227b565b905092915050565b6000819050919050565b6122e9816122d6565b81146122f457600080fd5b50565b600081359050612306816122e0565b92915050565b6000602082840312156123225761232161215f565b5b6000612330848285016122f7565b91505092915050565b600073ffffffffffffffffffffffffffffffffffffffff82169050919050565b600061236482612339565b9050919050565b61237481612359565b82525050565b600060208201905061238f600083018461236b565b92915050565b61239e81612359565b81146123a957600080fd5b50565b6000813590506123bb81612395565b92915050565b600080604083850312156123d8576123d761215f565b5b60006123e6858286016123ac565b92505060206123f7858286016122f7565b9150509250929050565b61240a816122d6565b82525050565b60006020820190506124256000830184612401565b92915050565b6000806000606084860312156124445761244361215f565b5b6000612452868287016123ac565b9350506020612463868287016123ac565b9250506040612474868287016122f7565b9150509250925092565b600080fd5b600080fd5b7f4e487b7100000000000000000000000000000000000000000000000000000000600052604160045260246000fd5b6124c08261226a565b810181811067ffffffffffffffff821117156124df576124de612488565b5b80604052505050565b60006124f2612155565b90506124fe82826124b7565b919050565b600067ffffffffffffffff82111561251e5761251d612488565b5b6125278261226a565b9050602081019050919050565b82818337600083830152505050565b600061255661255184612503565b6124e8565b90508281526020810184848401111561257257612571612483565b5b61257d848285612534565b509392505050565b600082601f83011261259a5761259961247e565b5b81356125aa848260208601612543565b91505092915050565b600080604083850312156125ca576125c961215f565b5b600083013567ffffffffffffffff8111156125e8576125e7612164565b5b6125f485828601612585565b925050602083013567ffffffffffffffff81111561261557612614612164565b5b61262185828601612585565b9150509250929050565b6000602082840312156126415761264061215f565b5b600061264f848285016123ac565b91505092915050565b612661816121ee565b811461266c57600080fd5b50565b60008135905061267e81612658565b92915050565b6000806040838503121561269b5761269a61215f565b5b60006126a9858286016123ac565b92505060206126ba8582860161266f565b9150509250929050565b600067ffffffffffffffff8211156126df576126de612488565b5b6126e88261226a565b9050602081019050919050565b6000612708612703846126c4565b6124e8565b90508281526020810184848401111561272457612723612483565b5b61272f848285612534565b509392505050565b600082601f83011261274c5761274b61247e565b5b813561275c8482602086016126f5565b91505092915050565b6000806000806080858703121561277f5761277e61215f565b5b600061278d878288016123ac565b945050602061279e878288016123ac565b93505060406127af878288016122f7565b925050606085013567ffffffffffffffff8111156127d0576127cf612164565b5b6127dc87828801612737565b91505092959194509250565b6000602082840312156127fe576127fd61215f565b5b600082013567ffffffffffffffff81111561281c5761281b612164565b5b61282884828501612585565b91505092915050565b600080604083850312156128485761284761215f565b5b6000612856858286016123ac565b9250506020612867858286016123ac565b9150509250929050565b7f4e487b7100000000000000000000000000000000000000000000000000000000600052602260045260246000fd5b600060028204905060018216806128b857607f821691505b6020821081036128cb576128ca612871565b5b50919050565b60006060820190506128e6600083018661236b565b6128f36020830185612401565b612900604083018461236b565b949350505050565b600060408201905061291d600083018561236b565b61292a6020830184612401565b9392505050565b7f4e487b7100000000000000000000000000000000000000000000000000000000600052603260045260246000fd5b7f4e487b7100000000000000000000000000000000000000000000000000000000600052601160045260246000fd5b600061299a826122d6565b91507fffffffffffffffffffffffffffffffffffffffffffffffffffffffffffffffff82036129cc576129cb612960565b5b600182019050919050565b600081905092915050565b60006129ed82612224565b6129f781856129d7565b9350612a07818560208601612240565b80840191505092915050565b6000612a1f82846129e2565b915081905092915050565b7f546f6b656e206e6f7420666f756e640000000000000000000000000000000000600082015250565b6000612a60600f8361222f565b9150612a6b82612a2a565b602082019050919050565b60006020820190508181036000830152612a8f81612a53565b9050919050565b60008190508160005260206000209050919050565b60006020601f8301049050919050565b600082821b905092915050565b600060088302612af87fffffffffffffffffffffffffffffffffffffffffffffffffffffffffffffffff82612abb565b612b028683612abb565b95508019841693508086168417925050509392505050565b6000819050919050565b6000612b3f612b3a612b35846122d6565b612b1a565b6122d6565b9050919050565b6000819050919050565b612b5983612b24565b612b6d612b6582612b46565b848454612ac8565b825550505050565b600090565b612b82612b75565b612b8d818484612b50565b505050565b5b81811015612bb157612ba6600082612b7a565b600181019050612b93565b5050565b601f821115612bf657612bc781612a96565b612bd084612aab565b81016020851015612bdf578190505b612bf3612beb85612aab565b830182612b92565b50505b505050565b600082821c905092915050565b6000612c1960001984600802612bfb565b1980831691505092915050565b6000612c328383612c08565b9150826002028217905092915050565b612c4b82612224565b67ffffffffffffffff811115612c6457612c63612488565b5b612c6e82546128a0565b612c79828285612bb5565b600060209050601f831160018114612cac5760008415612c9a578287015190505b612ca48582612c26565b865550612d0c565b601f198416612cba86612a96565b60005b82811015612ce257848901518255600182019150602085019450602081019050612cbd565b86831015612cff5784890151612cfb601f891682612c08565b8355505b6001600288020188555050505b505050505050565b600081519050919050565b600082825260208201905092915050565b6000612d3b82612d14565b612d458185612d1f565b9350612d55818560208601612240565b612d5e8161226a565b840191505092915050565b6000608082019050612d7e600083018761236b565b612d8b602083018661236b565b612d986040830185612401565b8181036060830152612daa8184612d30565b905095945050505050565b600081519050612dc481612195565b92915050565b600060208284031215612de057612ddf61215f565b5b6000612dee84828501612db5565b91505092915050565b60006060820190508181036000830152612e11818661227b565b90508181036020830152612e25818561227b565b9050612e346040830184612401565b949350505050565b6000612e4882856129e2565b9150612e5482846129e2565b91508190509392505050565b60006060820190508181036000830152612e7a818661227b565b9050612e896020830185612401565b8181036040830152612e9b818461227b565b9050949350505050565b6000612eb0826122d6565b9150612ebb836122d6565b9250828203905081811115612ed357612ed2612960565b5b92915050565b7f4e487b7100000000000000000000000000000000000000000000000000000000600052603160045260246000fd5b7f4e487b7100000000000000000000000000000000000000000000000000000000600052601260045260246000fd5b7f4e487b7100000000000000000000000000000000000000000000000000000000600052605160045260246000fdfea26469706673582212204577ca22f646f11f9283421d81e5584155a24e91ea7eca93a83b10a10bef185b64736f6c63430008170033",
  "linkReferences": {},
  "deployedLinkReferences": {}
}